:020000040000FA
:10000000C0D1002009040000110400001304000006
:10001000150400001704000019040000000000008F
:100020000000000000000000000000001B040000B1
:100030001D040000000000001F0400002104000057
:100040002304000081320000B949000023040000AD
:10005000793A000023040000452500002304000035
:1000600023040000F94800002304000001330000CD
:1000700023040000230400002304000023040000E4
:1000800023040000230400002304000023040000D4
:1000900023040000230400002304000023040000C4
:1000A00023040000230400002304000023040000B4
:1000B00023040000230400000000000000000000F2
:1000C0002304000023040000230400002304000094
:1000D000313300002304000023040000000000006E
:1000E0000000000000000000000000000000000010
:1000F0000000000000000000000000000000000000
:1001000000000000000000000000000000000000EF
:1001100000000000000000000000000000000000DF
:1001200000000000000000000000000000000000CF
:1001300000000000000000000000000000000000BF
:1001400000000000000000000000000000000000AF
:10015000000000000000000000000000000000009F
:10016000000000000000000000000000000000008F
:10017000000000000000000000000000000000007F
:10018000000000000000000000000000000000006F
:10019000000000000000000000000000000000005F
:1001A000000000000000000000000000000000004F
:1001B000000000000000000000000000000000003F
:1001C000000000000000000000000000000000002F
:1001D000000000000000000000000000000000001F
:1001E000000000000000000000000000000000000F
:1001F00000000000000000000000000000000000FF
:1002000000F002F800F0B4F80AA090E8000C824474
:100210008344AAF10107DA4501D100F0A9F8AFF251
:10022000090EBAE80F0013F0010F18BFFB1A43F0D4
:1002300001031847808C0000A08C0000103A24BFF6
:1002400078C878C1FAD8520724BF30C830C144BF3B
:1002500004680C607047000000230024002500267D
:10026000103A28BF78C1FBD8520728BF30C148BF19
:100270000B6070474B1C012B98BF70472DE9F003B2
:10028000911C9B08B1F80480B1F802900A8831F8FB
:1002900002CC8044814402448444D9F80070D8F8E8
:1002A00000601568DCF80040C9F80060C8F800700C
:1002B000CCF800501460D9F80470D8F80460556880
:1002C000DCF80440C9F80460C8F80470CCF80450A5
:1002D000546008315B1ED5D1BDE8F00370474B1C5C
:1002E000012B98BF70472DE9F003911C9B08B1F8D2
:1002F0000480B1F802900A8831F802CC00EB58086B
:1003000000EB590900EB520200EB5C0CD9F80070CD
:10031000D8F800601568DCF80040C9F80060C8F83B
:100320000070CCF80050146008315B1EDFD1BDE8CE
:10033000F0037047642900F09187782900F0CA879C
:10034000732901F0BF82002070471FB506F038FF07
:100350009DE8030001F0D6F901F040FB0400002005
:10036000002106F017FF401C60601FBD10B510BDD6
:1003700001F08AFB1146FFF7E8FF05F077F901F07D
:10038000A8FB03B4FFF7F2FF03BC01F0D9FB0000A8
:10039000401E00BF00BF00BF00BF00BF00BF00BFC6
:1003A00000BF00BF00BF00BF00BF00BF00BF00BF55
:1003B00000BF00BF00BF00BF00BF00BF00BF00BF45
:1003C00000BF00BF00BF00BF00BF00BF00BF00BF35
:1003D00000BF00BF00BF00BF00BF00BF00BF00BF25
:1003E00000BF00BF00BF00BF00BF00BF00BF00BF15
:1003F00000BF00BF00BF00BF00BF00BF00BF00BF05
:1004000000BFC5D170470000094880470948004730
:10041000FEE7FEE7FEE7FEE7FEE7FEE7FEE7FEE7B4
:10042000FEE7FEE704480549054A064B7047000011
:10043000F545000001020000C0910020C0D100205D
:10044000C0B10020C0B100209FED3D0A5FEA920CD0
:1004500057D000BFD0ED000A90ED011A0B1D60EEE1
:10046000A00A083041EE010AF5EEC00AF1EE10FADA
:10047000A6BFB1EEE01A81ED001A81ED000AD0EDC1
:10048000000A90ED011A191D60EEA00A083041EE35
:10049000010AF5EEC00AF1EE10FAA6BFB1EEE01ABD
:1004A00083ED001A83ED000AD0ED000A90ED011AE9
:1004B0000B1D60EEA00A083041EE010AF5EEC00AFD
:1004C000F1EE10FAA6BFB1EEE01A81ED001A81ED4F
:1004D000000A90ED001AD0ED010A191D21EE011A53
:1004E000083000EEA01AB5EEC01AF1EE10FAA6BF61
:1004F000F1EEC10AC3ED000A83ED000ABCF1010C64
:10050000A8D112F0030208BF704700BFD0ED000A67
:1005100090ED011A0B4660EEA00A091D083041EE6D
:10052000010AF5EEC00AF1EE10FAA6BFB1EEE01A2C
:1005300083ED001A83ED000A521EE7D170470000D8
:10054000000000002DE9F04106462DED028B8C469F
:100550000088736801EB80044508274601EB85009D
:1005600004EB85025FEA95087DD000BFD1ED003A2B
:10057000D4ED001A91ED012A94ED013A73EEA16ACF
:1005800091ED024A91ED031AD4ED022AD4ED035AFB
:1005900090ED008A90ED017A90ED020A90ED036AE9
:1005A00092ED005AD2ED014AD2ED027AD2ED030A61
:1005B000C1ED006A72EE036A73EEE13A74EEC71A97
:1005C000C1ED016A74EE226A74EE622A37EEC04A07
:1005D000C1ED026A71EE256AC1ED036A72EE436AEB
:1005E00031EE652A38EE051A35EE483A80ED001AEC
:1005F00037EE241A80ED011A30EE271A80ED021A28
:1006000036EE201A80ED031A30EEC61A93ED000A7A
:10061000D3ED010A63EE804A26EEA05A66EE805AB8
:1006200063EEA03A74EE854A75EEE33AC4ED004AF3
:1006300063EE204AC4ED013A61EE803A61EEA00A11
:1006400023EE000A74EEE31A30EE800AC2ED001ABF
:1006500082ED010A93ED020AD3ED030A62EE803ABD
:1006600022EE203A00E024E062EEA01A22EE002AF8
:1006700073EE832A1030103172EE611AC4ED022A33
:1006800024EE202AC4ED031A61EE001A61EE200A5E
:1006900024EE000A103332EE611A103430EE800A74
:1006A00082ED021A82ED030A1032B8F101087FF4DC
:1006B0005DAF294602236046726800F0D5FA726881
:1006C0002946BDEC028B3846BDE8F041022300F01C
:1006D000CBBA2DE9F34F2DED048B87B00B98008832
:1006E000470801EB870000EB870606EB8705CDE99D
:1006F0000056DDF82C80A5F1040C0CEB8703CDE946
:1007000002014FEA5709D8F804800427CDE904977D
:10071000D1ED000A96ED000A90ED011A95ED013A2F
:1007200070EE802A70EEC03AD1ED010A96ED010A12
:10073000041F321F30EE802A70EEC01A31EE230AF9
:10074000D0ED000A32EE415A33EEC11A30EE434A80
:1007500071EEE04A95ED000A70EEA11A35EE435AAB
:1007600074EE805A72EEE04A70EEA20A71EEC01A80
:1007700031EE031A74EEC04A30EE800A062708F103
:10078000080A81ED000A90ED010AD5ED010A08F191
:10079000100B30EE020A08F1180830EE200A81ED45
:1007A000010A80ED004AC0ED015AC6ED004A86ED0F
:1007B000015A85ED001AC5ED011ADDF810900830D8
:1007C000083108350836A9F102095FEA590900F035
:1007D000078100BFD1ED000A96ED000AD0ED011AA5
:1007E000D5ED014A30EE802A30EEC05AD1ED010A33
:1007F00096ED010A70EE802A30EEC01A31EE850ABD
:10080000D5ED000A30EE644A90ED000A31EE403A30
:1008100030EE011A73EE205A32EE403A30EE020A00
:1008200031EE601A73EE603A30EE200A32EEE13AB1
:1008300075EE611A81ED000A90ED010AD5ED010A0D
:1008400033EE643A30EE220A71EEA41A30EE200A3A
:1008500081ED010AD4ED002ADCED004A54ED010AD5
:100860001CED010A32EEA47A32EEE49A72EEE42A2A
:1008700052ED018A70EE807A30EEC02A72EEE82ADC
:10088000D2ED000A93ED000A13ED018A30EEC05A52
:1008900072EE886A77EEE82A35EE026A32EEC85ABE
:1008A00077EE602A72EEC04A70EEC02A70EE870AB8
:1008B00072EEC22A30EE800A38EE682A84ED000A11
:1008C00012ED010A53ED010A32EE492A30EE270AF1
:1008D00030EE200A04ED010A9AED000ADAED010A71
:1008E00064EE007A25EEA07A65EE805A24EE204A66
:1008F00037EE877A35EEC44A80ED007A80ED014A02
:1009000026EEA04A66EE005A66EE200A26EE800A1F
:10091000083034EE654A083130EE800A82ED004A34
:10092000083C02ED010A9BED000ADBED010ADDF84F
:1009300014E023EE804A63EE205A23EE003A63EE81
:10094000A03A083A34EE254A0BEB8E0B33EE633AAD
:1009500086ED004A0AF1080A86ED013AB1EE643AE2
:10096000083663EE003A25EE203A25EE000A64EEE2
:10097000A00A33EEC33A30EEC00A8CED003A0CED1B
:10098000010A98ED000AD8ED010A08EB870861EE2C
:10099000803A21EE203A21EE001A61EEA01AACF165
:1009A000080C33EE833A31EE611A85ED003A62EEBF
:1009B000801A85ED011A22EE201A62EEA00A22EEBC
:1009C000000A083531EE611A30EE800A83ED001A14
:1009D00003ED010A083BB9F101097FF4FBAE00BF4A
:1009E000D1ED000A96ED000A91ED011AD0ED015A01
:1009F00030EE802A70EEC00A96ED010A95ED015A9C
:100A0000042371EE001A71EE404A35EEA00A90ED13
:100A1000001A31EEE54A70EEE50A30EE453A95ED02
:100A2000000A34EE454A30EE855A74EEC12A72EE61
:100A3000413A71EE240A31EE021A72EE802A73EE08
:100A4000C03A70EEC00A31EE000A81ED000A90ED66
:100A5000010A95ED011A30EE210A30EE010A81ED0E
:100A6000010A9AED000A9AED011A63EE001A22EECD
:100A7000812A22EE800A23EE011A71EE821A30EEEC
:100A8000410AC0ED001A80ED010A9BED000A9BEDC2
:100A9000011A63EE801A24EE012A24EE000A23EEE6
:100AA000811A71EE821A30EE410AC6ED001A86ED07
:100AB000010A98ED010A98ED001A60EE801A25EE01
:100AC000012A60EE810A25EE000A32EE211A30EE8C
:100AD000C00A85ED001A85ED010A0B984268DDE930
:100AE000030100F0C1F80B980423049942680298AE
:100AF00000F0BAF80B98042304994268019800F0BA
:100B0000B3F80B98049904234268009807B0BDEC31
:100B1000048B02B0BDE8F04F00F0A6B82DE9F0411B
:100B20000488984617460D460646012A20D1281DFE
:100B3000F4B1A0F1080114F0010F06D091ED020A02
:100B4000B1EE400A81ED020A08315FEA540C0FD081
:100B500091ED020AB1EE400A81ED020A91ED040A1C
:100B6000B1EE400A81ED040A1031BCF1010CEFD165
:100B7000B4F5807F1BD008DC102C13D0202C16D0AD
:100B8000402C19D0802C0DD01CE0B4F5007F13D080
:100B9000B4F5806F06D0B4F5006F08D0B4F5805F6F
:100BA0000AD00FE029463046FFF7CCFC0AE0294680
:100BB0003046FFF78EFD05E0214601232846726886
:100BC00000F052F8B8F1000F04D0B1892846B2689D
:100BD000FFF750FB012F18BFBDE8F08100EE104A6F
:100BE000B7EE001A002CF8EE400A81EE200A08BF8A
:100BF000BDE8F081A5F1080014F0010F0ED0D0ED92
:100C0000020A60EE800AC0ED020AD0ED030AF1EE9E
:100C1000600A60EE800AC0ED030A0830610808BF70
:100C2000BDE8F081D0ED020A60EE800AC0ED020A54
:100C3000D0ED030AF1EE600A60EE800AC0ED030A0F
:100C4000D0ED040A60EE800AC0ED040AD0ED050A7A
:100C5000F1EE600A60EE800AC0ED050A1030491E10
:100C6000E0D1BDE8F08100002DE9FF4F2DED108BA4
:100C700082B09FEDFEFA0B461C46DB084FF0000CDD
:100C80000CEB030505EB030808EB030909EB03066E
:100C900006EB030A00EBCC0700EBC60697ED001A43
:100CA000D6ED000A0AEB030B00EBC50500EBCA0A00
:100CB00031EE200A71EE601A95ED002ADAED000A95
:100CC0000BEB030E00EBC80832EE201A00EBCB0B47
:100CD00032EE602AD8ED002ADBED000A00EBC909EC
:100CE00000EBCE0E99ED003A9EED004A72EEA03A6E
:100CF00072EEE02A73EE040A33EE443A70EE636A51
:100D000070EE233A31EE600A71EE200A33EEA01A3B
:100D100073EEE00A87ED001AC6ED000A97ED011A9E
:100D2000D6ED010AD5ED013A98ED014A31EE206A7F
:100D300071EE600A9AED011A99ED015A73EE814A3B
:100D400073EEC13A9BED011A34EE017A34EE411A8A
:100D50009EED014A75EE045A35EE444A36EE475A86
:100D600036EE076A34EEE57A74EEA54A76EE245A3A
:100D700076EE644AC7ED015AC6ED014A76EE874A1F
:100D8000C8ED004A76EEC74ACBED004A75EE404A00
:100D900035EE000AC8ED014A8BED010A32EE430A36
:100DA00032EE032A20EE0F0A62EE0F4A33EEC42A17
:100DB000A4448C4522EE0F3A33EE842A30EEC34A27
:100DC00062EE0F3A30EE833A31EEC02A31EE800AFD
:100DD00071EE630A31EE231A72EEE41A72EEA42A5F
:100DE00070EE013A30EE410AC5ED003A8EED000A90
:100DF00032EE200A8AED000A32EE600A89ED000A1E
:100E000033EE620A85ED010A33EE220A8EED010A05
:100E100034EE610A8AED010A34EE210A89ED010AF5
:100E2000FFF42EAF082B3FBF02B0BDEC108B04B017
:100E3000BDE8F08F4FF0000CCDF804C04FF0010C6E
:100E4000CDF800C0DDF804C0159DAC444FEA8C0518
:100E500005EB0C07CDF804C007EB0C094FEA4C0872
:100E600008EB0C0609EB0C0A02EBCC0C02EBC808F1
:100E700002EBC60602EBC50502EBC70702EBC90988
:100E800002EBCA0A9CED00DA9CED018AD8ED00CA9B
:100E900096ED00CAD5ED00BA97ED00BAD9ED00AADB
:100EA000DAED008AD8ED017A96ED01AA95ED017A86
:100EB000D7ED016A99ED016ADAED019ADDF800C01B
:100EC0000CEB0307FD1805EB030A0AEB030808EB1C
:100ED000030606EB030B00EBCC0900EBC808D9EDC9
:100EE000000A98ED000A00EBC70700EBC606D7ED35
:100EF000001A96ED001A70EE803A0BEB030E70EEBE
:100F0000C00A31EE810A00EBC50500EBCB0B31EED8
:100F1000C11AD5ED001A9BED002A00EBCA0A00EBBE
:100F2000CE0E31EE824A71EEC21A9AED002ADEED43
:100F3000002A32EE223A32EE622A73EEC42A73EEAF
:100F4000843A30EE435A30EE030A33EE803A73EEC1
:100F5000C0DA89ED003A99ED010A98ED013AD7ED32
:100F6000013A95ED014A70EE03EA30EE433A96ED10
:100F7000010A9AED01EADEED014A33EE809A73EE42
:100F8000C03A9BED010A74EE005A34EE404A3EEE40
:100F9000240A7EEE644A3EEEE5EA7EEEA55A79EE3C
:100FA00040EA39EE009A32EEAE0A72EEEE2A75EEA3
:100FB00089EA35EEC99A7EEE455AC9ED01EA3EEE60
:100FC000055A2BEEADEA67EE09EA2BEE899A67EE39
:100FD0002DDA3EEE2EEA39EE6D9A88ED00EA67EEE4
:100FE000A5DA88ED019A2CEE809A6CEEA55A27EED0
:100FF000800A39EE2D9A35EEC00A85ED009A66EE2C
:10100000055A85ED010A2AEEA20A2AEE855A66EEF5
:10101000222A30EE250A8BED000A35EE620A73EEC5
:10102000A42A8BED010A31EE420A31EE021A33EEA8
:10103000E42A62EE8F3A20EE0F0A21EE0F1A22EE1A
:101040000F2A70EEC02A30EE800A71EEC10A71EEEE
:10105000811A33EE421A33EE022A34EE633A34EE4A
:10106000234A70EE043A30EE444A01E0F304353F7F
:1010700072EE834A72EEC32A32EE613A32EE210AF0
:1010800071EE601A71EE200A2DEE232A28EE031A63
:101090002DEE033A68EE233AA44432EE011A28EE0C
:1010A000842A8C4587ED001A33EE631A29EE843AC0
:1010B00087ED011A29EE801A28EE800A32EE011A15
:1010C00030EE430A26EEA42A8EED001A8EED010AB8
:1010D0002BEE240A26EEA11A6BEE211A30EE010A3D
:1010E0002CEE221A86ED000A31EEC20A6AEE221AAE
:1010F00086ED010A2AEE200A6CEE200A31EE000A83
:101100008AED000A30EEE10A8AED010AFFF4D8AE5A
:10111000DDF800C00CF1010CCDF800C063453FF6CE
:1011200091AEDDF854C04FF6FF7404EACC0CCDF854
:1011300054C0072B3FF6A0AD02B0BDEC108B04B03D
:10114000BDE8F08F70B5064600F0BCFA056806F100
:101150000B0020F00704B4429CBF002070BD2B465A
:101160006A68BAB11068A04210D304F1080188423D
:101170003CBF5068586007D351681019416011682E
:10118000091B016058601460101D70BD1346526841
:10119000002AE7D12146284600F0A0FA0028DED137
:1011A00070BD00000FB4044910B503AA029800F006
:1011B0008DFB10BC5DF814FB8000002070B5044668
:1011C00085690068C10601D5302600E02026C007E9
:1011D00007D070BDD4E9012130469047206A401CF9
:1011E00020626D1EF6D570BD70B504468569007825
:1011F000C00707D170BDD4E9012120209047206AA3
:10120000401C20626D1EF6D570BD70B50C460546BB
:10121000012A05D02878800600D5EA69002302E07B
:10122000012305E05B1C934202D2E05C0028F9D167
:10123000A869E618C01AA861286A184428622846D6
:10124000FFF7BCFF04E0D5E9012114F8010B90473A
:10125000B442F8D32846FFF7C7FF70BD2DE9F0412F
:101260000646002410687529314616A510D0AFF344
:101270000080002802DA404213A507E031688A079F
:1012800001D512A502E0490704D511A5012401E00A
:10129000AFF3008000210A2206F1240709E0B0FB29
:1012A000F2FCB0FBF2F302FB1C003030785418461D
:1012B000491C0028F3D123462A463046BDE8F041B8
:1012C00000F07DBA000000002D0000002B0000009F
:1012D0002000000070B504460D4621461068AFF3AB
:1012E00000802188090502D50F4A7A4402E00E4A9F
:1012F0007A440E32002104F1240305E000F00F06C9
:101300000009965D5E54491C0028F7D1207800231F
:10131000000704D5702D02D009B1022311322046F6
:10132000BDE8704000F04BBA1E7B00002DE9F05F75
:10133000894604464FF0000ADFF824B1FB44C0F8A8
:1013400020A02046E168884700287DD0252806D0C7
:10135000D4E901219047206A401C2062F1E7002572
:101360005F462046E16888472028064607DB312E85
:1013700005D2B81910F8200C08B10543F1E7A80709
:1013800001D525F00405C4F81CA00027C4F818A056
:101390002A2E09D0304603F01BFC38B304EB870833
:1013A000303EC8F8186019E059F8041B204604EBD9
:1013B00087029161E1688847012F064618D1E069EC
:1013C000002820DA25F020051DE0D8F8180000EBF1
:1013D000800006EB40003038C8F818002046E1686D
:1013E0008847064603F0F4FB0028EED1012F0AD00F
:1013F0002E2E08D12046E16888477F1C0646022F22
:1014000045F02005C4DBA069002803DA404245F01E
:101410000105A061E80701D025F01005A6B1A6F1ED
:101420004100192802D8203645F400654A46314665
:10143000204625604D46FEF77DFF60B1012807D0AC
:10144000ED1D25F0070000E007E000F1080978E74E
:1014500005F1040975E730467AE7206ABDE8F09F98
:10146000F47A000070B5064600F030F904680546CD
:1014700030460A22002100F002F82C6070BD2DE9F0
:10148000F04791460F4680460446002614F8015B5B
:101490002DB100F00FF90068405DC007F6D12B2D8B
:1014A00002D02D2D18D0641E4A463946204600F041
:1014B0001FFA27B13968A14201D1C7F800804FF067
:1014C000020471050BD54042002803DD00F0FEF850
:1014D0000460A007BDE8F08746F48066E4E70028D2
:1014E000F8DA00F0F3F804606FF00040F2E7000073
:1014F000014A00F04DBA00008800002030B50546D2
:101500000B462A4613F8014B12F8010B08B1A04212
:10151000F8D01CB1002802D06D1CF1E7284630BD80
:1015200040EA010310B59B070FD1042A0DD310C860
:1015300008C9121F9C42F8D020BA19BA884201D9B2
:10154000012010BD4FF0FF3010BD1AB1D30703D0FA
:10155000521C07E0002010BD10F8013B11F8014BB0
:101560001B1B07D110F8013B11F8014B1B1B01D1CC
:10157000921EF1D1184610BD10B5203AC0F00B8074
:10158000B1E81850203AA0E81850B1E81850A0E887
:101590001850BFF4F5AF5FEA027C24BFB1E81850E1
:1015A000A0E8185044BF18C918C0BDE810405FEA51
:1015B000827C24BF51F8043B40F8043B08BF7047CD
:1015C000D20728BF31F8023B48BF11F8012B28BFD2
:1015D00020F8023B48BF00F8012B70474FF0000293
:1015E00000B5134694469646203922BFA0E80C5019
:1015F000A0E80C50B1F12001BFF4F7AF090728BFF4
:10160000A0E80C5048BF0CC05DF804EB890028BF6F
:1016100040F8042B08BF704748BF20F8022B11F098
:10162000804F18BF00F8012B704700004FF0013CBD
:1016300050F8042B51F8043B9A4221D1A2EB0C0341
:10164000934313EACC1317D150F8042B51F8043B01
:101650009A4215D1A2EB0C03934313EACC130BD19E
:1016600050F8042B51F8043B9A4209D1A2EB0C0329
:10167000934313EACC13DBD04FF00000704700BF58
:10168000D01A01BAB1FA81F101F0180122FA01F081
:10169000CB40C1F12001DBB2C0B2C01A2CFA01F379
:1016A000D11A914311EAC311E6D1704770477047D0
:1016B0007047000010B500F091F9001D10BD00BF8B
:1016C000D55A0000004870476491002000487047D8
:1016D0005C910020704770477047704738B50446EA
:1016E0000A4600206946AFF30080002808BF38BDD5
:1016F00002460099204600F075F9012038BD01200E
:1017000000F09CB9F8B5AFF30080054600200C4608
:10171000102000BF0646A819A0420DD932466946DE
:101720000020AFF30080070008BF00F087F90098A1
:10173000A04218BF0546C419FFF7C4FF056007465D
:10174000F01D20F007004619284600F00AF8B442C0
:1017500008BFF8BDA21B31463868BDE8F84000F06C
:1017600041B900210160C0E90110704710207047A5
:1017700070B50446051FFFF7A5FF0068002C14BFD5
:10178000446870BD002C18BFAC423CBF2046646862
:10179000F8D301680A18AA4218BF456003D12A6825
:1017A00005461144016028684119A1421CBF6C60C4
:1017B00070BD6168696021680844286070BD2DE9CA
:1017C000F0470D4699469246044600F12408016808
:1017D000880604D5E06921F01001216000E00120B5
:1017E000A84201DD471B00E00027A1697A1902EB3E
:1017F0000900081AA0612078C00602D42046FFF72D
:10180000DDFC002608E0D4E901211AF80600904723
:10181000206A401C761C20624E45F4DB2078C0060E
:101820000AD52046FFF7CAFC06E0D4E901213020A2
:101830009047206A401C2062381EA7F10107F4DCA3
:1018400007E0D4E9012118F805009047206A401C00
:101850002062281EA5F10105F3DC2046FFF7C4FC39
:101860002078000602D50220BDE8F0870120FBE7C2
:1018700001694A1C02610878704700B58FB0CDE954
:1018800001310021059105497944CDE90310114644
:101890006846FFF74BFD0FB000BD0000E5FFFFFFFE
:1018A00010B5436913B1AFF3008001E0FFF7ADFC61
:1018B000012010BD127800F124010A7000224A7044
:1018C0000122EDE711684FF0FF32E9E7074B70B5F1
:1018D0000D467B44FFF7D1FF0446284600F0AAF8E6
:1018E00010B14FF0FF3070BD204670BD9F3B00002F
:1018F0002DE9F05F824615468B4600270AF1010468
:10190000B9460078302801D09DB113E014F8010BDE
:101910000127782803D0582801D045B10AE00DB13D
:10192000102D07D1002714F8010B102502E008251F
:1019300000E00A250026B0460EE005FB080005FB86
:1019400006F101271FFA80F801EB1046B6F5803F3B
:1019500000D3B94614F8010B294600F05DF80028C1
:10196000EBDABBF1000F05D00FB1641E00E0544666
:10197000CBF80040B9F1000F06D0FFF7A7FE022117
:101980000160C81EBDE8F09F48EA0640FAE7000083
:101990002DE9F04115460E46040002D12C6804B929
:1019A0000BA4204600F061F80444207870B127466B
:1019B0003146384600F049F80444207810B1002040
:1019C00004F8010B38462C60BDE8F0810027F9E7E8
:1019D00000000000004870475C91002000487047FC
:1019E0007C910020034640688C46002818BF88423E
:1019F0003CBF03464068F8D318681844884207D0B3
:101A00000CF1030020F00700001D411A521A014694
:101A1000081D0A60FFF7ACBE3A2800D2303820F02B
:101A20002002412A01D3A2F13700884201D34FF0AE
:101A3000FF307047007B00F08000704710B500F069
:101A400057F8BDE8104000F04DB830B503461D789A
:101A50001DB10A4603E0AC4201D1181A30BD12F89C
:101A6000014B002CF7D15B1CF1E730B503461D7824
:101A70003DB10A4612F8014B1CB1AC42FAD15B1CD5
:101A8000F5E7181A30BD70477546FFF7A3FFAE465D
:101A900005006946534620F00700854618B020B57A
:101AA000FEF7C0FCBDE820404FF000064FF00007F5
:101AB0004FF000084FF0000B21F00701AC46ACE8F6
:101AC000C009ACE8C009ACE8C009ACE8C0098D4663
:101AD000704710B50446AFF300802046BDE81040C3
:101AE000FEF74FBC002801D000F02AB87047000074
:101AF00010B5012805D0002103A000F027F801202F
:101B000010BD09A1F8E7000053494752544D454D17
:101B10003A204F7574206F662068656170206D658E
:101B20006D6F7279000000003A2048656170206D89
:101B3000656D6F727920636F727275707465640081
:101B400001491820ABBEFEE72600020070B505462D
:101B50000C460A2000E06D1C00F011F835B1287821
:101B60000028F8D102E0641C00F009F814B12078D4
:101B70000028F8D1BDE870400A20AFF3008008B516
:101B800069468DF800000320ABBE08BD10B50446C1
:101B9000214602A0FFF706FB10BD000025730D0AC9
:101BA000000000002DE9F0438BB006460F461546B5
:101BB0004FF0000828A13046FFF738FD20B929482A
:101BC000007908B14FF0010800BF4FF00F0930460F
:101BD000FFF7DCFF31E0642000F0FAFA00F018FEB5
:101BE00003282AD1202103A8FFF7F8FC0020019048
:101BF00003A8029001A91C4804F02EFF0198D8B157
:101C0000B8F1000F06D139460298FFF777FC08B10A
:101C1000002517E015A10298FFF770FC041E0AD0FA
:101C2000607A312802D0607A352804D14FF000085C
:101C300001201049087000BF00BFB9F10000A9F1F0
:101C40000109C8D100BF281EA5F10101CDB2BCDC3D
:101C50000BB0BDE8F083000041542B435245473F91
:101C6000000000008C000020948E00202B43524581
:101C7000473A00006000002070B509250E210F20B2
:101C800002F0A6FE00200E490870002411E004EBCB
:101C900044030C4E06EB83031A7A04EB440306EB71
:101CA0008303596804EB440356F82300FFF77AFFD7
:101CB000641CAC42EBDB1221132002F089FE70BDE4
:101CC00060000020BC81000010B502F0EBFD04466E
:101CD0000E480068A04217D00C4804600C48807978
:101CE000012811D10A48407902280DD00021094865
:101CF000006800F0080000B901210548C07888425A
:101D000001D0012010BD00BF0020FBE7140000201F
:101D10008C0000201005005038B50C2138480160B7
:101D2000002137483830016035484830016002F002
:101D3000C7FB0D2132483C3001604FF4003031497F
:101D4000086004F085F8044600BF254625B100BFB1
:101D5000284602F067FF00BF00BF2B4800680090D4
:101D600003208DF80100294A6946012004F004F897
:101D7000044600BF254625B100BF284602F052FFA9
:101D800000BF00BF0121084603F09AFF1F4A6946C1
:101D9000092003F0F1FF044600BF254625B100BF2E
:101DA000284602F03FFF00BF00BF0121092003F0D9
:101DB00087FF164A69460A2003F0DEFF044600BF8B
:101DC000254625B100BF284602F02CFF00BF00BF0A
:101DD00001210A2003F074FF0C4A69460D2003F02C
:101DE000CBFF044600BF254625B100BF284602F0C0
:101DF00019FF00BF00BF01210D2003F061FF38BDB6
:101E0000080700500805005030820000A54C000073
:101E10000148007870470000040000200148008855
:101E200080B270470800002070B502F019FD04462A
:101E3000AD48006800F57A70A0427AD2AA480460E2
:101E4000AA480078C0B90020A94908600120A94922
:101E5000886000BFA64800680028FBD00020A44985
:101E6000103908600120A3490860486000BFA048FD
:101E7000103800680028FAD09F48B0F90200002806
:101E800001DA062070BD9C4949888AB29B490878CE
:101E90000978491C994B1970C11700EB9171891091
:101EA000A0EB8101964B23F8112096480078032877
:101EB0000CDA18469349097830F811009249086005
:101EC00090480078401C8F4908700DE08C480088CD
:101ED0008B49498808448A49898808448849C988BF
:101EE00008448010884908608748006841F24641EC
:101EF00088421FD285480078052803DD00208449E8
:101F0000087004E081480078401C804908708148CE
:101F10000078052804DA7F480078401C7D49087065
:101F20007D48007805285CDA7B480078401C7A49B7
:101F3000087056E07448006841F28441884219D222
:101F400000207249087073480078052803DD0120DD
:101F50006F49087004E06F480078401C6D490870B4
:101F60006D48007805283CDA6B480078401C6A49C7
:101F7000087036E06448006841F2C341884212D2DA
:101F8000002062490870634908706348007805289A
:101F900003DD02205E49087023E05F480078401CA2
:101FA0005D4908701DE000205849087059490870C3
:101FB000594908705448006841F2EF51884203D2F1
:101FC0000320534908700CE04F48006841F2B1719A
:101FD000884203D204204E49087002E005204C4993
:101FE00008704E4800686430A0427AD200254C4800
:101FF000C07808B1012000E0002006464748046090
:102000004748807968B142480078022803DD444897
:102010004079022805D13E48007802280CDC032DC7
:102020000AD04048007838B100213E48007801F0DD
:102030004BFF00203B4908703B480088401C3A4950
:1020400008803748807908B9002645E03048007894
:1020500028B1012802D002281CD100BF00BF2C48A3
:102060000078022803D030480088642803DC2E481A
:102070000088C8280DDD00202B4908800325012693
:102080000220274981F8B0002148017827A0FFF7F6
:1020900089F820E00020244908802148407902285E
:1020A00018D10021284601F00FFF1E48007818B90A
:1020B00001201C4908700AE01A480078012803D161
:1020C00002201849087002E00020164908701548DF
:1020D0000578012600BF00BF3146284601F0F4FE16
:1020E00000BF0B480078CDE6180000200C0000204F
:1020F00014710040007000400E00002020000020FD
:1021000026000020210000200800002022000020DE
:102110000400002023000020240000201C000020D8
:102120008C000020300000202E00002042617474DA
:1021300065727920696E642025640A0000210648D2
:1021400001600821001F016000210348001D01609B
:1021500000200249087070472475004004000020E8
:102160001A4A92781AB9194A1278052A00D070478B
:10217000164A82F85C0092F85C20082A22D2DFE836
:1021800002F0210405060708091500BF00BF00BFC3
:1021900000BF00BF50230D4A136107220B4B5A703A
:1021A00001229A701A4682F8B0100CE00023074A08
:1021B00013610A22054B5A7001229A701A4682F85E
:1021C000B01000E000BF00BF00BFD0E78C000020CF
:1021D00070B504463220B4FBF0F506E0322003F07F
:1021E00017FD02F095FCFFF71FFE281EA5F1010563
:1021F000F4D170BDF0B5ADF6040D06460F46154698
:10220000002415E028682044B0FBF7F107FB11001B
:1022100036F9100000EE100AB8EEC00ADFED4E0AE3
:1022200080EE201A01A800EB840080ED001A641CE7
:10223000FF2CE7DD012101A800F018FBFF2412E0CC
:1022400001A800EB840090ED000A01A901EBC40095
:1022500080ED000A9FED410A6000401C01EB800008
:1022600080ED000A641E002CEADA0123002201A995
:102270003B48FEF753FC3B4901A802F033F9012328
:102280001A4601A93648FEF749FC00242AE0802CB2
:1022900019DA28882044C0F30800334901EB800094
:1022A00090ED000A01A901EBC400D0ED000A30EE68
:1022B000200A28882044C0F308002B4901EB800045
:1022C00080ED000A0DE001A901EBC40090ED000AC9
:1022D00028882044C0F30800234901EB800080EDEA
:1022E000000A641CFF2CD2DD286880302860287822
:1022F00070BB2868A0F580742346E11704EBD15128
:102300004912A4EB4121184A02EB810000F0D8FAEF
:102310001BE0B4FBF7F107FB11422046E11704EB89
:10232000D1514912A4EB41210F4B03EB810191EDF7
:10233000000ADFED090A20EE200ABDEEC00A10EE09
:10234000101A09B226F81210641C2868A042E0D8BE
:102350000DF6040DF0BD0000000000470000000075
:102360008C82000094820020948600200146384828
:1023700090F8B100A0B13648D0F8B40038B1344874
:10238000D0F8B400401E324AC2F8B40003E0002284
:102390002F4880F8B12000222D48C0F8B82033E043
:1023A0002B4890F8B00040B32948D0F8B800022874
:1023B00003D2274890F8B200B8B100222448C0F8F0
:1023C000B82090F8B02080F8B120002280F8B22028
:1023D0003C2901DB062200E003221D48C0F8B4209E
:1023E00000201B4A82F8B0000EE01948D0F8B8006F
:1023F000401C174AC2F8B80006E01548D0F8B800EB
:10240000401C134AC2F8B8001148406920B1104876
:102410004069401E0E4A50610D48406918B90620B7
:102420000B4A107010E00A48807868B1084890F8AC
:10243000B00048B9064890F8B10028B90020044A15
:102440009070104640781070014890F8B1007047C5
:102450008C00002070B53448007860B9334803F030
:10246000FCF8012800D170BD01202F4908703049C7
:102470002E4804F0F1FA2F4C2079E8B9607900F089
:102480008000C8B100F01EFF00F00105284601F0F1
:10249000A5F9002028490860607900F07F022448EF
:1024A0000068811EA01D01F02FF90120224908605B
:1024B00000201D49087035E06179880900EBD07172
:1024C0004910A0EB410131B900F0FCFE00F0010021
:1024D0001A49086005E019480068C0F10100174971
:1024E00008601648006801F079F9154890F8462010
:1024F0000F480168204601F007F960790121B1EB2E
:10250000901F02D10020084908706179012202EB76
:10251000911000EBD0714910A0EB4101627961F399
:102520008712627100BF9EE74C000020A88E002039
:1025300050000020D08E00202C15004058000020B4
:102540008C0000202DE9FE4F0026B1464FF480702C
:1025500002900125002412E0029804F061F940B1D4
:1025600000BF46480068284018B1029804F04AF9B4
:102570002E436D000298001D80B20290641C082C4E
:10258000EAD34FF4BE7004F04BF948B14FF4BE707B
:1025900004F038F946F0004600BF3948006881462B
:1025A000F0B2F8B1012500241AE005EA0600A8B14E
:1025B00000BF344850F82400C0F30420074600BF91
:1025C000304850F82400C0F301408046204602F015
:1025D0005DFD824641463846D04700BF6D00641C11
:1025E000082CE2D306F00040002844D0002440E04C
:1025F00025480057401C00283AD0234810F804A072
:102600002AF0C007384602F089FD804602F03EFD00
:102610000190019858B34FEA9A1B012000FA07F580
:1026200000BF1A4850F82700C0F30140804605EA71
:10263000090010B1B8F1020F05D005EA0900A8B9E8
:10264000B8F1030F12D1BBF1030F0BD1B8F1020F98
:1026500001D1032000E0022000903846009904F0E8
:10266000B1F800BF59463846019A904700BF00BFF5
:10267000641C002CBCD0BDE8FE8F00000463004049
:1026800010050050106500400C910020000700501C
:10269000F0B506464025364FBD66C027344DC5F817
:1026A00090704FF080552F6E314DC5F89C704FF0F3
:1026B00080552B696D69AC1E03FB04F22C4DAD6E89
:1026C0005D1BAD0802EB85004DE005686D1C002D1B
:1026D00044D0274F0568BF6EBD423FD14568082DE5
:1026E00001D2456800E00825214FFD66002107E082
:1026F0008D1C50F825701E4D703545F82170491C11
:102700001B4DED6E8D42F3D8856A302D04D23027F3
:10271000174DC5F890700BE0856AC02D04D9C0270D
:10272000134DC5F8907003E0114D876AC5F890709D
:10273000C56A012D04D101270D4DC5F8987003E03D
:1027400000270B4DC5F89870056B35B1056B6D1CF6
:102750001DB1074D076BC5F89C7006E0044DAD6ECA
:10276000AD08A0EB85009042AFD200BFF0BD0000E5
:102770008C00002070B5014600240020821E0FE06E
:102780008D18EE1705EB9666B611A5EB8616F3B21B
:102790001E4DED5C022D01D1651C6CB2551C6AB258
:1027A000022AEDDB0D46CE1701EB9666B611A1EBC2
:1027B0008616F3B2154DED56012D05D0022D07D129
:1027C000012C00DD012007E0022C00DB012003E0EA
:1027D000042C00DB012000BF00BFA8B9012210E0DB
:1027E0008D18EE1705EB9666B611A5EB8616F3B2BB
:1027F000064DED5C022D02D140F0020003E0551CB5
:102800006AB2092AECDB00BF70BD000054810020D1
:102810000EB50020029002A80190012000906946A8
:10282000104804F019F99DF80800B8B9FFF7FCFA50
:1028300028B90D488079012810D102900EE00A488D
:10284000807901280AD1FFF73FFA10B104200290E5
:1028500004E001F00DFE08B1052002909DF808008B
:102860000EBD0000BC8E00208C000020024600201F
:1028700020E079B102EB800393ED000A0F4B03EBEC
:102880008003D3ED000A20EE200A02EB800383EDE3
:10289000000A0EE002EB800393ED000A074B03EB06
:1028A0008003D3ED000A80EE201A02EB800383ED53
:1028B000001A401CFF28DCDD70470000B0790000E2
:1028C000014600200FE001EB800292ED000A074A6A
:1028D00002EB8002D2ED000A80EE201A01EB8002AA
:1028E00082ED001A401CFF28EDDD7047B07D00002E
:1028F0002DE9F84F05460B4690464FF0000BCDF8FA
:1029000000B00020B5F900B0A3F800B05E46DFF8D3
:10291000FCB0DBF800B0DC4683F802B0834683F8F5
:1029200003B01B1DAD1CA8F1010804204FF00109E4
:1029300059E0B5F900B0ABEB0602AD1CDFF8D0B042
:102940005BF82C10002A03DA4FF0080A524201E02B
:102950004FF0000A0024CF088A4202D30424521AFE
:102960000F4449088A4203D344F00204521A0F4428
:1029700049088A4202D344F001040F44BAF1000F1F
:1029800001D0F61B00E03E4416F5004F00DA214E60
:10299000B6F5004F01DB47F6FF7644EA0A04DFF89C
:1029A00078B05BF824B0DC44BCF1000F01DA4FF0E2
:1029B000000CBCF1580F01DD4FF0580CB9F1000FBD
:1029C00001D0009406E0DDF800B04BEA041B03F8E8
:1029D00001BB401CB9F1000F02D14FF0010B01E027
:1029E0004FF0000BD946B8F1000BA8F10108A0DCAC
:1029F000B9F1000F04D1DDF800B003F801BB401CB1
:102A0000DFF808B0CBF800C0BDE8F88F4400002024
:102A1000CC7100000080FFFF307300002DE9FC5FE7
:102A200006464FF0000B4FF4807001900020814665
:102A300005468046002412E036F914008044002C3C
:102A40000CDD36F8140000F40041601E36F810006A
:102A500000F40040814201D009F10109641CFF2CFF
:102A6000EADD40464FEAE87108EB11614FEA212A9E
:102A700000240AE036F91410A1EB0A00002801DB5B
:102A8000014600E041420D44641CFF2CF2DD284663
:102A9000E91705EB11610D1241480078854205DD0B
:102AA00002204049404A1278885404E000203D4901
:102AB0003D4A12788854002701240EE03A480078F5
:102AC0002044052190FBF1F201FB12003549085C1E
:102AD000022801D1781CC7B2641C052CEEDB3148FA
:102AE00031490978405CD0B9CFB12D490978490006
:102AF000032291FBF2F1A9420CDB2949087800EB93
:102B0000D0714910A9420ADAB9F11E0F07DBB9F1F9
:102B1000460F04DC01212348234A12788154042FF4
:102B200010D11F480078083080281CDCA5F108006F
:102B30001B490978884216DD194800780830184981
:102B4000087010E07FB916480078083840280ADB82
:102B50001348017805F10800814204DD104800782F
:102B600008380F4908700F480F49097810F801B06C
:102B70000D4ACDF800901278815C2B460848027807
:102B80000AA0FEF70FFB08480078401C052190FBC7
:102B9000F1F201FB1200044908705846BDE8FC9FA1
:102BA00034000020350000203A0000205641443A0D
:102BB00025642025642025642025640A0000000087
:102BC00005480078002802DC0448007808B101209C
:102BD00070470020FCE70000680000206A00002029
:102BE0001A201A4908600020087101211848016064
:102BF00000BF88061749086000BF1B201349886082
:102C000000211248017301211148001D016000BF1D
:102C1000C8061049086000BF1C200C49086100214B
:102C20000A48017501210A480830016000BF080701
:102C30000849086000BF0C2105480C300160001DE8
:102C4000016000200449087070470000A090002037
:102C5000680700500C0500506A00002070B592B063
:102C60000546062D7ED2DFE805F07D03075F393883
:102C70000120AE49887100BFAC48807908B90120B5
:102C800000E00020A949887100F0D0F901F018FC9B
:102C9000A6488079012806D1A448C07818B9012037
:102CA00000F0A2FE02E0002000F09EFE9F48807926
:102CB00068B900209D49087000F0DCFF002000F09A
:102CC000C3FA01F05EFE38B101F0B6FE04E0012067
:102CD0009649087000F0B8FA1EE100BF00F0A6F9AE
:102CE00001F0EEFB00F0C6FF914802F01DFA8F489C
:102CF0008079012806D18D48C07818B9012000F0EC
:102D000073FE02E0002000F06FFE8848807950B129
:102D100086480078042803DD04208449087002E016
:102D2000012082490870F7E020210AA8FEF756FC2E
:102D3000002008900AA8099008A97E4803F08CFE9C
:102D40000898002872D07CA10998FEF7D1FB0446B0
:102D5000002C0ED079A12046FEF768FC50B97348CC
:102D6000C06E00E0AFE0082803D203210120FFF786
:102D7000F7F9A6E073A12046FEF758FC90B96EA1C2
:102D80000020FEF7B5FB044614B12078302804D1AA
:102D900003210220FFF7E4F993E003210420FFF769
:102DA000DFF98EE069A12046FEF740FCE8BB4FF05A
:102DB000FF315E48C0F8C010007A5C4981F8BC0061
:102DC00001215A4880F8BD105BA10020FEF790FB5E
:102DD00004463CB1002211462046FEF750FB534901
:102DE00081F8BC0054A10020FEF782FB04465CB1D0
:102DF000002211462046FEF742FB08B1012100E007
:102E000000214A4880F8BD104BA10020FEF770FB5E
:102E100004463CB1002211462046FEF730FB4349F0
:102E2000C1F8C0004148017801E006E04AE080F8BE
:102E3000C4100B203D49087043E046A12046FEF730
:102E4000F5FB00283DD13CA1FEF752FB0446002CC7
:102E500037D042A12046FEF7E9FB70B9FF2636A124
:102E60000020FEF745FB04461CB12046FEF7FAFAA7
:102E700086B2F0B201F083FD23E03AA12046FEF7CE
:102E8000D5FBF0B92948D0F89010D0F88C20D0F8B4
:102E90008830D0F88400CDE90532079104902348AA
:102EA000D0F88010C26F836F406FCDE9013203917B
:102EB00000901E48036FC26ED0F898102BA0FEF74A
:102EC00071F900BF28E03848406820B301F0C8FC21
:102ED00004463548006801281BD13348C068201AD1
:102EE000B0F57A7F14D93048C06888B1FEF790FFFA
:102EF00050B10121002000F0E7FF022000F0B2F9FC
:102F000000202949486003E00121032000F0DCFF94
:102F100000BF00BF00BF00BF00BF0448807918B9E0
:102F2000FFF74EFE00B930BF12B070BD8C0000201C
:102F3000A88E0020948E002020000000626F6E6436
:102F400000000000756E626F6E640000726674654A
:102F50007374000064756D7000000000747769730D
:102F600000000000646576696E666F0044657669EE
:102F70006365733A25303878202564202530387809
:102F800020253038782025303878202530387820B2
:102F9000253038782025303878202530387820259D
:102FA0003038782025640A00B890002010B501F070
:102FB000AFFD1648D0F8AC0030B100201349C1F87D
:102FC000AC0000F0CDFA1DE0FFF722FC04462046DD
:102FD000FFF744FE0D4800780D490978884210D06B
:102FE0000B48007818B90BA0FEF7DCF805E007489D
:102FF000007810B90AA0FEF7D5F804480078044913
:10300000087000BF01F0BCFC10BD00008C00002067
:103010003B000020506F776572206F6E2E0A000013
:10302000506F776572206F66662E0A0010B50948EA
:10303000006800F0080030B9012000F0C7FD012051
:103040000549C87005E0022000F0C0FD00200249DB
:10305000C87010BD100500508C000020F0B5ADF612
:10306000044D06460D46002760E0002410E036F9C6
:10307000140000EE100AB8EEC00ADFED400A80EE40
:10308000201A0DF2044000EB840080ED001A641C4D
:10309000FF2CECDDFF2414E00DF2044000EB840073
:1030A00090ED000A0DF2044101EBC40080ED000A2E
:1030B0009FED330A6000401C01EB800080ED000AA8
:1030C000641E002CE8DA012300220DF204412D4891
:1030D000FDF724FD4FF4807201A90DF20440FDF7C5
:1030E000B3F900241DE057B901A800EB840090ED6E
:1030F000000A254800EB840080ED000A10E0224819
:1031000000EB840090ED000A01A800EB8400D0EDF4
:10311000000A30EE200A1C4800EB840080ED000A13
:10312000641CFF2CDFDD06F580767F1CAF429CDB44
:1031300000241EE0144800EB8400D0ED000A00EEED
:10314000105AB8EEC00A80EE801A0F4800EB8400D7
:1031500080ED001A0C4800EB840090ED000ADFEDD2
:103160000B0A20EE200A084800EB840080ED000ADC
:10317000641CFF2CDEDD0DF6044DF0BD00000047A1
:10318000000000008C82000094820020CDCCCC3F57
:1031900010B5002000F01AFD00F04CFD10BD10B578
:1031A00000F068FD022000F011FD10BD10B5FFF722
:1031B000EFFF00BF0648406AB0F5705FFAD3FFF733
:1031C000EEFF0349C8693C2101F040F910BD000041
:1031D0008C00002000F0010121B14FF400010B4AE6
:1031E000116004E04FF40001084A121D116000F064
:1031F000020121B14FF08071044A116004E04FF0E8
:103200008071024A121D11607047000008050050CD
:1032100040F20D310A480160001F0160001F01608B
:103220000748001D01604FF4000006490860400097
:1032300008608010091F0860C000091D0860704701
:10324000600700500C05005020B14FF00071044A97
:10325000116004E04FF00071014A121D11607047C7
:10326000080500503EB50446029402A801900120D2
:1032700000906946014803F01AFC3EBDBC8E002058
:1032800000B50020FFF7A6FF0020094908600948A3
:10329000D0F80C010848006808490A6801219140EB
:1032A000084018B101200649C1F8AC0000BD00007B
:1032B0000C11004000100040301500400814004080
:1032C0008C00002001210B4A116000210A4A116084
:1032D00001210A4A116000BF074909680029FBD093
:1032E0000449091D08680021034A11600121034AAD
:1032F0005160704704D5004000D1004000D000402C
:103300000848006868B10020064908600648D0F8FF
:10331000400101200449886004480068401C0349BA
:103320000860704740B1004000B0004040000020FD
:1033300010B50748006850B1FFF78CF80020044929
:1033400008600448D0F8400101200249886010BD9F
:10335000404102400040024010B51548D0F89800A6
:1033600010B11448006802E01248001D00680446CD
:103370000F48406EA04219D00D48446601200E4906
:10338000C8600B48406E000E5A2141EA00200B49EC
:1033900008600748406E20F07F40091F086004481D
:1033A0000146496EC0F8421001F046FB10BD000016
:1033B0008C000020F8FF070000100040241500409A
:1033C0002DE9F0470646894692461F4634463C4D55
:1033D000A5F19C00C16B2160016C6160B0F84400F4
:1033E00020810A34287804F8010B687804F8010B6E
:1033F000A87804F8010BE87804F8010BA5F19C000B
:1034000090F8460004F8010BA5F19C0090F84700E5
:1034100004F8010BA5F19C0090F8480004F8010B9A
:10342000A5F19C0090F8490004F8010B04F8017B19
:10343000A5F19C00D0F8940018B9A5F19C00C06ECD
:1034400008B9012000E0002004F8010B052F01D08D
:10345000062F0DD108AD287804F8010B687804F820
:10346000010BA87804F8010BE87804F8010B17E0C9
:103470004FF0000811E012482C3800EB880528783E
:1034800004F8010B687804F8010BA87804F8010B24
:10349000E87804F8010B08F10108B8F1080FEADB3D
:1034A000A4EB060900200749086052464946304609
:1034B00000F02AF9012003490860BDE8F087000008
:1034C000280100202C15004010B5FFF7A1FE1220A6
:1034D0001C49086004201C4908600020091D086080
:1034E000091D08601948091D086001201649283186
:1034F00008604FF6FF701449303108601448091F06
:1035000008601448406E000E5A2141EA00200E491E
:103510001831086010480C49103108600D48406EA1
:1035200020F07F40091D0860012007492031086014
:10353000091D086008200949C1F80403012001F0B1
:103540002DFB10BD001200400C150040FF4A020385
:10355000211001008C0000205AA5A5000010004099
:10356000F8B56048007802282AD15E490622486BE7
:103570003C31FDF7D5FF002821D15A48406B00F1BE
:103580000E042078C21700EBD2625311554A4C3218
:1035900052F823200146C31700EBD3635B11A0EB65
:1035A00043150123AB401343C21700EBD262551100
:1035B0004C4A4C3242F8253001204B4988608EE05D
:1035C000484800780828FAD146490A22486B3C311D
:1035D000FDF7A6FF0028F2D100906E464148456BEA
:1035E000E87CC0F38007E87C00F00200022803D0EA
:1035F00001203D498860F8BDA87A3070E87A707083
:10360000287BB070687BF0703648406B00F1120484
:103610002078344991F85C10884232D12078012812
:1036200005D02078022802D02078042829D12D48FE
:10363000D0F89C000099884223D1072029490870BE
:103640002D212848016100F1A806287D3070687D91
:103650007070A87DB070E87DF0702078012804D1EA
:103660000520204981F85C0003E006201D4981F80F
:103670005C001C482178D0F8A8201CA0FDF792FD22
:103680002CE02078174991F85C10884223D12078EB
:10369000052802D0207806281DD11248D0F89C00B9
:1036A0000099884217D1287D3070687D7070A87DA0
:1036B000B070E87DF0700B48D0F8A80000998842FF
:1036C0000CD15FB109200749087021780AA0009A3F
:1036D000FDF768FD02E001200349886000BF00BFDC
:1036E00089E700008C00002000100040426F6E64EB
:1036F0003A25642025780A00426F6E6465643A2595
:10370000642025780A00000030B504460D461346B3
:1037100001202F49C8600220FFF75CFD2D4800689A
:1037200000F07F00984209D12A48483000680928F3
:1037300004D32848483000680B281ED900202649A9
:10374000086001202249086100BF23480068002862
:10375000FBD0652093FBF0F100FB11301D490860A0
:1037600000201D491039086001201949086000BF78
:103770001948103800680028FAD016481030006840
:1037800020F47F404A2D01D94A2100E0294640EA31
:1037900001201049103108600E48001F046000200D
:1037A0000D49091F086008200949C1F808030120D4
:1037B000886000BF0848001F00680028FAD0002079
:1037C0000549091F0860FFF705FD002030BD000016
:1037D0000010004008150040101100407047000024
:1037E00070B505460E46144601202C49C860FFF707
:1037F000F1FC2B48006800F07F00A04208D1284867
:103800004830006820B126484830006803281ED997
:1038100000202449086001202049086100BF214898
:1038200000680028FBD0652094FBF0F100FB1140FC
:103830001B49086000201B49103908600120174906
:10384000486000BF1748103800680028FAD01448B4
:103850001030006820F47F404A2E01D94A2100E050
:10386000314640EA01200E49103108600C48001F23
:10387000056001200949886000200A492431086058
:103880000649C1F8300108200749086000200349B3
:10389000C1F80C01012001F081F970BD0010004059
:1038A00008150040101100400413004010B54348B3
:1038B00090F8BC0042490978884206D13F4890F808
:1038C000BD0040490978884261D03C4890F8BC006E
:1038D0003B490870394890F8BD003A4908703748AC
:1038E000D0F8C000401C20B93448D0F8C010C160E6
:1038F00007E000F0B5FF3149D1F8C01001442F486E
:10390000C16000F0B7F93048006800F07F002C4932
:103910000978884209D12C4848300068092804D326
:103920002948483000680B2820D900202749086022
:1039300001202749086100BF244800680028FBD007
:103940001F480078652190FBF1F201FB12001E492F
:10395000086000201D491039086001201C490860DA
:1039600000BF1A48103800680028FAD00220FFF77C
:1039700031FC14480078FFF731FF1048D0F8C03010
:10398000104802780E48017812A0FDF70BFC0B4896
:103990000078012809DD00F063FF0849C968884202
:1039A00003D900210548C0F8C0100448D0F8C00071
:1039B00008B1012010BD0020FCE700008C000020B1
:1039C00000000020010000200815004010110040F8
:1039D0000010004052665F546573743A25642025D8
:1039E000642025640A00000070B5044600252048C4
:1039F000006800F4803008B1012500E00025A542F0
:103A000019D002201B49487100041949083908607F
:103A10004FF4FA70FEF7DCFB4FF400301449091F35
:103A200008604FF4FA60FEF7D3FB4FF40030104902
:103A3000083908602546C5B1002640F2DC50FEF783
:103A4000C7FB03E06420FEF7C3FB761C642E05D29F
:103A50000748006800F480300028F3D0642E02D2BA
:103A6000FEF70AF900E0002500BF0248457170BD6D
:103A7000100500508C00002010B50024204602F0F4
:103A80006BFA00BF10BD000000B500204649086079
:103A9000091D0860454890F84700012804D0022815
:103AA0000CD003281DD112E002203F490C310860E0
:103AB00040F26B103C493C3108601BE003203A495E
:103AC0000C3108607D2038493C31086012E001204B
:103AD00035490C31086040F26B1033493C310860C5
:103AE00008E0042030490C3108607D202E493C312B
:103AF000086000BF00BF01202D49C8602D49086043
:103B000000042B49C1F804030D212B480160001D5E
:103B100001600C212848103801600021274801600D
:103B200003202649091F086000212448001D016068
:103B3000FEF704FB1D4890F84800012806D0022833
:103B400009D003280CD0042814D10EE001201B4911
:103B5000DC31086013E002201849DC3108600EE017
:103B600003201649DC31086009E003201349DC31E9
:103B7000086004E000201149DC31086000BF00BF8C
:103B800000200E49E43108600D480E49086002210A
:103B90000C48001D016001200849143908600A49D9
:103BA00088600860486000BD049500408C000020DB
:103BB00000900040009200401C0700501475004027
:103BC0000E0000202C7600400070004010B5044626
:103BD00024B1012C06D0022C13D10AE080200C491C
:103BE000086012E080200A49091F08604000086050
:103BF0000BE080200649091F08604000091D08608D
:103C000003E004A0FDF7CEFA00BF00BF10BD000026
:103C10000C050050446F6E277420737570706F72BE
:103C2000742073616D706C6520736F757263652E9F
:103C30000A00000010B50D480078B0B901200B490A
:103C4000087000F0A1FE0120094908600920002841
:103C500009DB00F01F02012191404209920002F1AC
:103C6000E022C2F8001100BF00BF10BD0C00002010
:103C70000090004013480078012822D1002011490B
:103C800008700120104948600920002817DB00F067
:103C90001F02012191400D4A430942F8231000BF41
:103CA00000BF00BFBFF34F8F00BF00BF00BF00BF0A
:103CB00000BF00BFBFF36F8F00BF00BF00BF00BFDA
:103CC00000BF70470C0000200090004080E100E041
:103CD00070B5C8217848FDF781FC582076490872F4
:103CE0005221754841725E2181724FF0FF31C0F858
:103CF000C010007A704981F8BC0000216E48C17282
:103D0000FFF7E0FA1921B0FBF1F201FB12000F30CE
:103D1000694948610A46107AC21700EBD262531112
:103D200001F14C0252F823200B46197ACB1701EB14
:103D3000D3635B11A1EB43150123AB4013435E4AF0
:103D4000107AC21700EBD26255115B4A4C3242F82E
:103D500025304C3A507AC21700EBD2625311564AC2
:103D60004C3252F823304C3A517ACA1701EBD262E6
:103D70005211A1EB42150122AA4013434E4A507A38
:103D8000C21700EBD26255114B4A4C3242F8253033
:103D90004C3A907AC21700EBD2625311464A4C3229
:103DA00052F823304C3A917ACA1701EBD262521181
:103DB000A1EB42150122AA4013433F4A907AC21751
:103DC00000EBD26255113C4A4C3242F825303B4858
:103DD0003949C8614FF48040086200204862384881
:103DE00048634FF48070886301F16800FEF750FC6F
:103DF0003148D0F8980010B13248006802E03148EC
:103E0000001D00682C494866A52081F83C005A2115
:103E1000294880F83D10442180F83E104D2180F85B
:103E20003F105A2180F84010A52180F8411001462A
:103E3000496EC0F84210017A80F84610032180F8DC
:103E40004810002180F849104FF4FA50B0F5FA5F9D
:103E50001BD0A0F52C50113888B1A0F598506F38C0
:103E600040B1A0F5B850A23870B90321124880F8CB
:103E700047100FE00221104880F847100AE00121A6
:103E80000D4880F8471005E000BF00210A4880F87F
:103E9000471000BF00BF01F0F5FA044600BF2546F9
:103EA00025B100BF284600F0BDFE00BF00BF62B6CE
:103EB0000A2000F035FE70BD8C0000205401002067
:103EC00094810020F8FF070070B504460D46032CCE
:103ED0000CD1012D06D12820FE4908700020FE4992
:103EE000087007E00120FB49087003E0FB4800EB85
:103EF000C4000571F748007800287DD0F5480078A7
:103F0000401EF44908700846007818B1F24800785D
:103F1000052833DB0020F0490870EE490870F048AE
:103F2000C07868B1EE488079012809D1ED49087060
:103F300000BFEA48017801208840EB4908600BE0A7
:103F40000020E849087000BFE4480178012088405B
:103F5000E549091D086000BF00BFE048017A012063
:103F60008840E149091D086000BF00BFDB48017CB3
:103F700001208840DC49091D08605FE2FDF748FF29
:103F80000646062E7ED2DFE806F0033F84C7E7FD33
:103F9000D049087800EBD0714910A0EB410159B924
:103FA0000020D049087000BFCC480178012088402B
:103FB000CD49091D086012E000BFC8480178012002
:103FC0008840C949086000BFC648007820B9C24887
:103FD0000078401CC04908700120C249087000BF29
:103FE000BE48017A01208840BF49091D086000BF12
:103FF00000BFBA48017C00E0F0E001208840BA49E7
:10400000091D086000BFE7E0B2490978481000EBDD
:10401000D0714910A0EB410199B90020B149087055
:1040200000BFAE48017801208840AF49091D0860F3
:1040300000BFA9480078032816D10520A6490870BA
:1040400012E000BFA548017801208840A649086019
:1040500000BFA448007820B99F480078401C9E49C2
:10406000087001209F49087000BF9C48017A012018
:1040700088409D49091D086000BF00BF9748017C2A
:10408000012000E089E088409749091D086000BFD1
:10409000A2E090490978881000EBD0714910A0EB9C
:1040A000410199B900208F49087000BF8B48017801
:1040B000012088408C49091D086000BF86480078AF
:1040C000022816D105208449087012E000BF8348F9
:1040D0000178012088408449086000BF8148007849
:1040E00020B97D480078401C7B49087001207D493B
:1040F000087000BF7948017A012088407A49091D7B
:10410000086000BF00BF7548017C012088407649E7
:10411000091D086000BF5FE06F480078401C6E49D1
:10412000087000BF6D480178012088406E49086022
:1041300000BF00BF6948017A012088406A49091D13
:10414000086000BF00BF6548017C012088406649C7
:10415000091D086000BF3FE05F480078401C5E49D1
:10416000087000BF5D480178012088405E49086002
:1041700000BF00BF5948017A012088405A490860B1
:1041800000BF00E00AE000BF5448017C01208840E5
:104190005549091D086000BF1EE000BF4E48007869
:1041A000401C4D49087000BF4C48017801208840F0
:1041B0004D49086000BF00BF4848017A012088408F
:1041C0004949086000BF00BF4448017C0120884085
:1041D0004549086000BF00BF00BF2FE142480830DA
:1041E000006800F0005048B93F480830006800F00F
:1041F000804018B101203D49087012E03A4808306B
:10420000006800F0005048B137480830006800F0FE
:10421000804018B902203549087002E00020334977
:1042200008703248007888B900BF2C48017A012014
:1042300088402D49091D086000BF00BF2748017C48
:10424000012088402849091D0860C0E027480078FF
:1042500001287AD1FDF7E2FD06461F480078401C90
:104260001D49087008460078052190FBF1F201FB1A
:10427000120004282DD141F2EF50864238DA00BFF7
:104280001948001F006815490A780121914008402B
:1042900038B112480178012088401349091D08608F
:1042A00005E00E480178012088400F49086000BFF2
:1042B00000BF0A48017A012088400B49091D0860A7
:1042C00000BF00BF0548017C012088400649091D48
:1042D000086063E06800002069000020A0900020D2
:1042E0008C0000206B000020080500506A000020B0
:1042F00041F2B170864229DA00BF514801780120AD
:1043000088405049086000BF00BF081F00684C4942
:104310000A7A01219140084038B14948017A0120C8
:1043200088404849091D086005E04548017A012098
:1043300088404449086000BF00BF4148017C01201B
:1043400088404049091D086028E028E000BF3C483B
:104350000178012088403B49086000BF00BF384811
:10436000017A012088403749086000BF00BF081F5C
:10437000006833490A7C01219140084038B1304837
:10438000017C012088402F49091D086005E02C4868
:10439000017C012088402B49086000BF17E000BF66
:1043A00027480178012088402649086000BF00BFE7
:1043B0002348017A012088402249086000BF00BFDD
:1043C0001F48017C012088401E49086000BF1E482C
:1043D000007898BB4DB900BF194810F8341001207F
:1043E00088401849091D086000BF012D08D100BF91
:1043F000134810F83410012088401249086000BFAB
:10440000022D1BD100BF0F48001F00680C4911F896
:10441000342001219140084040B1094810F834107F
:10442000012088400749091D086006E0044810F88B
:104430003410012088400349086000BF70BD0000AF
:10444000A0900020080500506A00002070B50446C6
:104450000D4629462046FEF701FE70BD70B50446A4
:104460000D461646324629462046FDF7C3FE70BD6E
:1044700010B500F017FA04460E480068A04217D0A5
:104480000C4804600C488079012811D10A48407911
:1044900002280DD000210948006800F4801000B106
:1044A000012105480079884201D0012010BD00BFDC
:1044B0000020FBE7640000208C0000201005005065
:1044C0000648006800F4801018B101200449087102
:1044D00002E00020024908717047000010050050FA
:1044E0008C00002070B52DED028BADF5806D05467A
:1044F0000E464FF4807269462846FBF7A5FF00245C
:1045000047E0684600EB840090ED000A06EB84006B
:10451000D0ED000AB4EEE00AF1EE10FA2ADD6846AA
:1045200000EB840090ED000A06EB8400D0ED000A59
:1045300030EE600A684600EB8400D0ED000A80EEA1
:10454000208A05EBC40090ED000A20EE080A05EB76
:10455000C40080ED000A6000401C05EB800090ED77
:10456000000A20EE080A6000401C05EB800080ED88
:10457000000A0DE09FED0A0A05EBC40080ED000A79
:104580009FED070A6000401C05EB800080ED000AEB
:10459000641CFF2CB5DD0DF5806DBDEC028B70BD8C
:1045A0000000000000200D4908600120810708601C
:1045B00000BF0A4800680028FBD000200749091DF9
:1045C00008600749086001208107886000BF034830
:1045D000001D00680028FAD070470000000100406C
:1045E0001805004001480249086070470090D00358
:1045F0007000002010B500F0C5FD28B18848008883
:10460000C0F304208749086000F010FE10B186480E
:104610008649486700F022FE30B18148E0380068E2
:10462000C0F342308249086000F042FE28B1814860
:10463000006820F080707F49086000F051FE48B1AA
:1046400000207D4908604FF08041C1F81001784991
:10465000091F086000F06EFE18B103207449643130
:10466000086000F07FFE68B10520744908600120F1
:1046700072497831086000207049083108603F2095
:10468000091F086000F086FE002855D06448E0301D
:1046900000686B4908606248E4300068091D0860E2
:1046A0005F48E8300068091D08605D48EC3000682C
:1046B000091D08605A48F0300068091D0860584814
:1046C000F4300068091D08605548F83000685C49FE
:1046D000203108605248FC300068091D08605948C4
:1046E0000068091D08605748001D0068091D086022
:1046F000544808300068091D086052480C300068B2
:10470000091D08604F48103000684D49403108606D
:104710004C4814300068091D08604A481830006889
:10472000091D086047481C300068091D086045489D
:1047300020300068091D086000F0FAFC30B13848EC
:10474000CC38006800F04F003F49086000F044FD9D
:1047500040B13E48006800F0010018B16FF0010060
:104760003A49086033487438006840F470003149B1
:104770007439086000BF00BF00BFBFF34F8F00BF98
:1047800000BF00BF00BF00BF00BFBFF36F8F00BFFF
:1047900000BF00BF2E48006800F00100E0B3012018
:1047A0002C49086000BF2C4800680028FBD028482E
:1047B000006820F001004FF01021C1F80C0200BF8A
:1047C000254800680028FBD000202249086000BF6F
:1047D000214800680028FBD000BF00BF00BF00BF19
:1047E00000BFBFF34F8F00BF00BF00BF1148F038BC
:1047F000006800F4E06019490843001D0D49F039D4
:10480000086000BF00BF00BFBFF34F8F00BF00BFF5
:1048100000BF00BF00BFFDE7FFE7FFF7E3FE10BDED
:1048200024030010403501400DF0ADBA00C0074030
:104830003C050040FCED00E00C010040105600403B
:1048400020C5004024040010E40E00400004004095
:104850000C12001004E5014000E401400000FA05DC
:1048600070B50B2000F07CF90C4805680C48046812
:1048700000BF0B480068A042FBD0094804680B2029
:1048800000F099F94FF47A706043C40B05EB4500D2
:10489000C0EBC51004EBC00070BD0000400000205C
:1048A00004B5004001480068704700004000002047
:1048B00010B500200C49086001200C494860886050
:1048C00000200B49086047F6FF700949383108603D
:1048D0004FF48030074908600120044908600B202C
:1048E00000F069F910BD00004000002000B0004059
:1048F00008B5004004B3004010B51A4AD1691A4AFD
:10490000127802B910BD194AB2F90020002A02DA61
:104910000022164B1A80154AB2F9002040F2555376
:1049200003EB82000F4A526A0E4B1B6AB2FBF3F490
:1049300003FB1423A0F5004212B221F81320094A08
:10494000526A521C074B5A620122094B9A601A6044
:104950005A600022074B1A60074AD2F8402100BF74
:10496000D0E700008C0000200C0000200E0000208A
:104970000070004040910040009000407047704738
:10498000704700207047000000200649C862486256
:10499000886205490870054908700549086005489E
:1049A000486070478C0000204C0000204D00002023
:1049B00050000020D08E002010B50448007F10B1B8
:1049C00002F052FB01E002F09FFA10BD1C910020A2
:1049D000F0B587B005460E46134A07CA04AB07C3B5
:1049E0008DF810508DF8116000F044FA00BF0F48A8
:1049F0000090402001900E4802904FF48070039088
:104A000003230C4A694604A800F056FA044600BF86
:104A100000BF274627B100BF384600F003F900BFAA
:104A200000BF07B0F0BD0000B0810000608F002023
:104A3000A08F0020A56D00002DE9F0410026402048
:104A400032498866800507694069A0F1020807FBC2
:104A500008F50846806E381A800805EB8004206847
:104A6000401C20B1284600F0CBFC2C4612E007E0A9
:104A70002648806E8008A4EB8004AC4200D203E09C
:104A80002068401C0028F3D000BF2048806E8008BA
:104A900004EB8004AC4237D32068401CA0BB1B4809
:104AA000816E204600F0CAFC1848C16E201D00F03F
:104AB000C5FC002609E0154A703252F82610B21CD7
:104AC00004EB820000F0BAFC761C1048C06E082887
:104AD00001D9082001E00D48C06EB042EBD80B4868
:104AE000D0F8901004F1280000F0A8FC0748D0F896
:104AF000981004F12C0000F0A1FC0448D0F89C10A0
:104B000004F1300000F09AFCBDE8F0818C00002038
:104B100001480249086070473546526E0006014060
:104B2000C1030C4A11600B490831096841F00901C1
:104B3000084A08321160111F096841F00101121F73
:104B400011600549034AFC3211600121034A1160DA
:104B500070470000040501403546526E00000140D8
:104B6000002817DB00F01F02012191400A4A430987
:104B700042F8231000BF00BF00BFBFF34F8F00BF3C
:104B800000BF00BF00BF00BF00BFBFF36F8F00BFFB
:104B900000BF00BF7047000080E100E0002809DB93
:104BA00000F01F02012191404209920002F1E0222F
:104BB000C2F800117047002809DB00F01F02012134
:104BC00091404209920002F1E022C2F800117047C0
:104BD00030380A2801D201207047002070470000B9
:104BE00000BF00BF00BF00BF00BFBFF34F8F00BFBB
:104BF00000BF00BF0948006800F4E06008490843AE
:104C0000001D0649086000BF00BF00BFBFF34F8F03
:104C100000BF00BF00BF00BF00BFFDE70CED00E01C
:104C20000000FA050EB504460020009001900290A5
:104C300002946A46002144F20100FFF7D1FF70B5EB
:104C400004460D46204600F0CCFB28B129462046FC
:104C500000F0B8FB002070BD0520FCE7034609B951
:104C60000E20704712B1501E104008B10920F8E71D
:104C70001960501E988000209860D86000BFF0E74F
:104C800070B504460D46204600F0ABFBA188884273
:104C900005D82946204600F0A9FB002070BD04205D
:104CA000FCE7000070B504460E466D4805686D4887
:104CB000007810B9012C00D070BD012C04D0092C53
:104CC0001ED00A2C1BD174E005F0020040B96648E2
:104CD0000460FFF7C5FD6449C860012048600EE02C
:104CE0006148406838B160480068012803D101215B
:104CF0000320FFF7E9F800205B49C8604860ACE09A
:104D000005F40070002841D105F0040078BB554837
:104D1000D0F89000C0281FD254480078042804D24C
:104D200052480078401C5149087051484F49097851
:104D3000415C4C48C0F89010FFF792FD4A49C860AA
:104D4000012048604FF4FA70886008460460012032
:104D5000444981F8B0002BE04248C07808B90120EE
:104D600000E0002001460020FFF7AEF820E0FFE75A
:104D700000203D49C8603B48C06E082818D208464C
:104D8000046003210120FDF7EBF911E036480068CB
:104D900009280DD100203449C86048603148C078E6
:104DA00008B1012000E0002001460020FFF78CF848
:104DB00053E005F4806088BB05F0040078BB294807
:104DC000D0F8900030281ED92848007820B1274814
:104DD0000078401E25490870254824490978415C1F
:104DE0002048C0F89010FFF73BFD1F49C860012024
:104DF00048604FF4FA708860084604600120194941
:104E000081F8B00028E01748C07808B9012000E018
:104E1000002001460020FFF757F81DE00AE0FFE7F9
:104E200000201149C8600846046003210220FDF7F4
:104E300097F911E00C4800680A280DD100200A49B2
:104E4000C86048600748C07808B1012000E0002031
:104E500001460020FFF738F800BF00BF00BF2BE776
:104E6000100500508C000020B89000206C0000203D
:104E70002882000010B501F039FC002010BD0000B0
:104E800070B504460A4800F0A7FA094989888842A3
:104E900008D10121074801F06BFA05460DB1052044
:104EA00070BD00BF21460248FFF7C9FEF8E70000C9
:104EB0003C9100207E0000202DE9F04188B004469E
:104EC0000D4617469846294807601DB9072008B0C7
:104ED000BDE8F081A88882B225482968FFF7BEFEA8
:104EE000064600BF0EB13046F1E700BFA88982B286
:104EF0002048A968FFF7B2FE064600BF0EB1304653
:104F0000E5E700BF20221C496846FCF735FBA06896
:104F10000690207908B1012000E000208DF81400EF
:104F20008DF81C80607908B10E2000E000208DF81B
:104F30001500E0780290A0780390207801906078C6
:104F400000900E49684601F0A1F9064600BF0EB177
:104F50003046BCE700BF9DF81D0008B901F060FABB
:104F60000121074801F004FAB1E7000078000020B1
:104F70003C9100204C9100206C820000496E0000A2
:104F80007E00002070B5044607480470012101F03E
:104F90000BFB0546112D04D121460448FFF770FE96
:104FA0000546284670BD00007D0000204C91002081
:104FB00010B50446206801F0F8FB206801F014FCED
:104FC0000021606801F0E4FB2548007F18B3A06968
:104FD0002449086000BF607D217D40EA0102224B28
:104FE000C3F86C2500BF1846D4E9001201F099FC03
:104FF000207D012832D10021A06801F0C9FBE068C2
:1050000001F0D3FBE06801F0EFFB1748D4E902217F
:1050100001F073FC22E0A0691249086000BF607DC6
:10502000217D40EA0102104BC3F86C2500BF1846F1
:10503000D4E9001201F04CFC207D01280ED10021A2
:10504000A06801F0A5FBE06801F0AFFBE06801F0AB
:10505000CBFB0548D4E9022101F023FC10BD000080
:105060001C91002024250040002000404FF0FF311B
:10507000054A42F82010082804DBFF23A0F10801AC
:105080004432535470470000C89000200146024843
:1050900050F8210070470000C89000202DE9F04F23
:1050A00003460C464FF0FF390AB1002000E008200B
:1050B00084460AB1082000E009208046614624E0C9
:1050C000154850F82100401CF0B91D4608462746F7
:1050D00016464FFA80FBDFF840A00AF1240A0AF8CE
:1050E00005B0DFF834A04AF820704EB94FFA85FBBE
:1050F000A0F1080ADFF820E00EF1440E0EF80AB025
:1051000000BF4FFA81F902E0491C4145D8D300BFE6
:105110004846BDE8F08F0000C890002001460148D5
:1051200040567047EC9000200021016041607047BC
:1051300013480078062820D11148001D007800F09F
:105140000F00D0B90E480830007800F0F000302889
:1051500001D1012070470A480830007800F0F000C3
:10516000402801D10120F5E705480830007800F01B
:10517000F000502801D10120ECE70020EAE7000010
:10518000E00F00F013480078062820D11148001DD8
:10519000007800F00F00D0B90E480830007800F019
:1051A000F000302801D1012070470A48083000780B
:1051B00000F0F000402801D10120F5E70548083053
:1051C000007800F0F000502801D10120ECE7002029
:1051D000EAE70000E00F00F013480078062820D12D
:1051E0001148001D007800F00F00D0B90E480830BB
:1051F000007800F0F000302801D1012070470A4803
:105200000830007800F0F000402801D10120F5E7D7
:1052100005480830007800F0F000502801D1012046
:10522000ECE70020EAE70000E00F00F00A48007811
:1052300006280ED10848001D007800F00F0040B984
:1052400005480830007800F0F000302801D1012036
:1052500070470020FCE70000E00F00F013480078E2
:10526000062820D11148001D007800F00F00D0B9A9
:105270000E480830007800F0F000302801D10120FD
:1052800070470A480830007800F0F000402801D14B
:105290000120F5E705480830007800F0F0005028BC
:1052A00001D10120ECE70020EAE70000E00F00F068
:1052B0000A48007806280ED10848001D007800F042
:1052C0000F0040B905480830007800F0F0003028A1
:1052D00001D1012070470020FCE70000E00F00F042
:1052E00013480078062820D11148001D007800F0EE
:1052F0000F00D0B90E480830007800F0F0003028D8
:1053000001D1012070470A480830007800F0F00011
:10531000402801D10120F5E705480830007800F069
:10532000F000502801D10120ECE70020EAE700005E
:10533000E00F00F00A48007806280ED10848001D4A
:10534000007800F00F0040B905480830007800F000
:10535000F000302801D1012070470020FCE7000058
:10536000E00F00F00A48007806280ED10848001D1A
:10537000007800F00F0040B905480830007800F0D0
:10538000F000302801D1012070470020FCE7000028
:10539000E00F00F00A48007806280ED10848001DEA
:1053A000007800F00F0040B905480830007800F0A0
:1053B000F000502801D1012070470020FCE70000D8
:1053C000E00F00F0826883881A4003689A5C0A70D4
:1053D0008268521C8260704701468A68C868801AD9
:1053E000704701468A68C868801A7047C268838817
:1053F0001A4003689954C268521CC260704700008A
:1054000002210C4A116000BF0B4909680029FBD03A
:105410000849091D086000BF074909680029FBD039
:105420000021044A116000BF034909680029FBD02C
:105430007047000004E5014000E4014001220B4BED
:105440001A6000BF0A4A1268002AFBD0016000BF40
:10545000074A1268002AFBD00022044B1A6000BFE2
:10546000034A1268002AFBD07047000004E501409F
:1054700000E4014070B504460D46E0B2FFF782FD3E
:10548000204670BD70B5002600204D490860486078
:105490004C49086048604C49086048604B480078B7
:1054A000002875D101204949087004204449C8608A
:1054B00020208860C968C800FBF744FE05464048C4
:1054C0000561EDB10146C9680246926801FB02F030
:1054D000FBF738FE054685B1002409E038488068AE
:1054E00004FB00503649096901EBC4014860641CA3
:1054F0003348C068A042F1DC04E048F2010601E054
:105500004FF4004630202F49C86050208860C96899
:10551000C800FBF717FE05462A480561EDB10146B4
:10552000C9680246926801FB02F0FBF70BFE0546D4
:1055300085B1002409E02348806804FB005021491C
:10554000096901EBC4014860641C1E48C068A042A0
:10555000F1DC04E04CF2010601E04FF44046142077
:105560001949C86001208860C968C800FBF7EAFDD6
:10557000054615480561F5B10146C96802469268BD
:1055800001FB02F0FBF7DEFD05468DB100240AE0C9
:1055900014E00D48806804FB00500B49096901EBD9
:1055A000C4014860641C0848C068A042F1DC04E003
:1055B0004CF2010601E04FF4404600BF304670BD9A
:1055C000948E0020A88E0020BC8E00204800002071
:1055D00010B51648007F20B11549164801F093F91F
:1055E00004E013498C39134801F060F902210846A0
:1055F000002817DB00F01F0301229A400E4B4409DC
:1056000043F8242000BF00BF00BFBFF34F8F00BF8F
:1056100000BF00BF00BF00BF00BFBFF36F8F00BF60
:1056200000BF00BF00BF00BF10BD00001C910020E4
:10563000100302000020004080E100E001460868FD
:10564000401CCA6890FBF2F302FB13004A689042C8
:1056500001D1002070470120FCE7014608684A6834
:10566000904201D0002070470120FCE72DE9FC4169
:10567000FEF798FFFEF72CFBFFF71AF9FDF724FF62
:1056800012211320FFF7A4F9FEF7FEF9FDF7A8FA9F
:10569000FCF742FBFDF78AFDF94890F84700F8490E
:1056A000D1F89010CDE90010F548436E4FF08050CE
:1056B000026EF4A1F6A0FBF775FD7EE2FDF776FC25
:1056C000EF4800780C287DD2DFE800F07C06183225
:1056D0005463F0EFEEEDECEBE94BDC7A08331A5D46
:1056E000083B996B586BFEF77BF8FFF7B9F800F5AC
:1056F0007A70E349C860022008705DE2FFF7B0F8F5
:10570000DF49C968884212D9DD48C07A401CC1B25D
:10571000DB48C172C07A022806DD0021D848C17278
:105720000320D749087002E00120D549087043E200
:10573000FDF7C8FD0F21B0FBF1F201FB1200C0F133
:105740005F04E21704EBD2625311CD4A4C3252F897
:105750002320E31704EBD3635B11A4EB4315012370
:10576000AB401A402AB9C64880F846400420C449D4
:10577000087021E2CFA0FBF715FDFEF75BFA00BF32
:10578000BF48406AB0F5006FFAD30520BC490870E5
:1057900012E2BB48406ABA49C96A401AB0F5007FB4
:1057A0007ED3B74A116AD0692C32FEF757FEB4484F
:1057B00090F82C0000287CD1B148C469C06AA0F5DB
:1057C000807000E0F7E1AE49096AB0FBF1F201FB3D
:1057D000120004EB4004AA48C06AA0F58070A849F2
:1057E000096AB0FBF1F201FB1200C0F30725A448DF
:1057F000806AA349096AB0FBF1F201FB1200C0F311
:1058000007262046FDF70AF940B2AE4948559C48A4
:10581000806A00F500609A49C96A884248D8984869
:10582000C469806A9649096AB0FBF1F201FB120073
:1058300004EB40043046FCF79DFF074607F00100EB
:1058400050B98F48006B401C8D4908639E48006822
:10585000401C9D49086002E000209B4908609A486E
:105860000068FCF783FD804696488057CDE9000725
:10587000944842573346294694A0FBF793FC43468D
:105880003A464FF48071204601F03CF97C48406A6A
:105890007B4988610846806A00F58070886206E06E
:1058A00007E079E167E19EE06AE035E00FE000BFE4
:1058B00000BF7348406A72498969884206D3FCF781
:1058C000C9FD6F48406A28306D49886174E1002045
:1058D0006B4B0090DC7A08331A5D083B996B586B70
:1058E0000023FDF76DFD6648C07A401CC1B26448D4
:1058F000C172C07A022802DD00216148C172FDF741
:10590000E1FC0521B0FBF1F201FB12000F305C4914
:105910004861052008704FE1FEF7ACF95848D0F80F
:10592000A800574C009094F85C30E57A0834625D2A
:10593000083CA16B606BFDF743FD2346DC7A08331E
:105940001A5D083B996B586BFDF74AFFFEF788FF1D
:1059500000F15504FDF7B6FC00F00F00211848488F
:10596000C1600820464908700846C47A0830035DC3
:10597000083890F85C2001695BA0FBF713FC1BE181
:10598000FEF76EFF3E49C96888422BD93C4890F823
:105990005C00012809D03A4890F85C00022804D045
:1059A000374890F85C0004280BD13548C07A401C79
:1059B000C1B23348C172C07A022802DD00213048EA
:1059C000C1722F48006938B107202D490870084678
:1059D0000069401E086105E0042029490870002084
:1059E00081F85C00E8E0264890F85C00052829D1A1
:1059F000002424E02248703050F82400A0B9601C34
:105A00001F49C8660846D0F8A810703040F8241026
:105A1000FFF712F8FEF7B2FF1948C26ED0F8A810CF
:105A200036A0FBF7BFFB0CE01548703050F824009F
:105A30001349D1F8A810884200D102E0641C082C58
:105A4000D8DB88E00E4890F85C00062804D00C48AB
:105A500090F85C0004287ED1002479E0084870307A
:105A600050F8240000B975E00548703050F8240063
:105A70000349D1F8A810884268D1254651E00000BA
:105A80008C00002031343A33323A313800000000C3
:105A900053656E646572204275696C6420402025F0
:105AA0007320257820253038782025642025640D42
:105AB0000A00000053616D706C652073746172742C
:105AC0000A000000548100203C00002053305B2578
:105AD0003032645D3D25642053315B253032645D96
