:020000040000FA
:10000000B8920020A9040000B1040000B30400006D
:10001000B5040000B7040000B904000000000000AF
:10002000000000000000000000000000BB04000011
:10003000BD04000000000000BF040000C104000077
:10004000C3040000F10C0000A1150000C30400006F
:10005000C3040000C3040000C3040000C304000084
:10006000C3040000A9140000C3040000650D0000D3
:10007000C3040000C3040000C3040000C304000064
:10008000C3040000950D0000C3040000C304000079
:10009000C3040000C3040000C3040000C304000044
:1000A000C3040000C3040000C3040000C304000034
:1000B000C3040000C30400000000000000000000B2
:1000C000C3040000C3040000C3040000C304000014
:1000D000C3040000C3040000C304000000000000CB
:1000E0000000000000000000000000000000000010
:1000F0000000000000000000000000000000000000
:1001000000000000000000000000000000000000EF
:1001100000000000000000000000000000000000DF
:1004000000F002F800F040F80AA090E8000C8244E6
:100410008344AAF10107DA4501D100F035F8AFF2C3
:10042000090EBAE80F0013F0010F18BFFB1A43F0D2
:1004300001031847D8AC0100F8AC0100103A24BF02
:1004400078C878C1FAD8520724BF30C830C144BF39
:1004500004680C607047000000230024002500267B
:10046000103A28BF78C1FBD8520728BF30C148BF17
:100470000B6070471FB502F02BFC9DE8030000F0F5
:10048000D5F81FBD10B510BD00F054F91146FFF7A7
:10049000F1FF01F0ABFA00F072F903B4FFF7F2FFDD
:1004A00003BC00F0A3F90000094880470948004751
:1004B000FEE7FEE7FEE7FEE7FEE7FEE7FEE7FEE714
:1004C000FEE7FEE704480549054A064B7047000071
:1004D000E111000001040000B8520020B892002091
:1004E000B8720020B872002070B5064600F082F89D
:1004F000056806F10B0020F00704B4429CBF002001
:1005000070BD2B466A68BAB11068A04210D304F1DE
:10051000080188423CBF5068586007D351681019E1
:1005200041601168091B016058601460101D70BDA6
:1005300013465268002AE7D12146284600F062F8A7
:100540000028DED170BD40EA010310B59B070FD132
:10055000042A0DD310C808C9121F9C42F8D020BA33
:1005600019BA884201D9012010BD4FF0FF3010BDEB
:100570001AB1D30703D0521C07E0002010BD10F8B9
:10058000013B11F8014B1B1B07D110F8013B11F87F
:10059000014B1B1B01D1921EF1D1184610BD4FF02B
:1005A000000200B5134694469646203922BFA0E8C3
:1005B0000C50A0E80C50B1F12001BFF4F7AF0907CF
:1005C00028BFA0E80C5048BF0CC05DF804EB8900C0
:1005D00028BF40F8042B08BF704748BF20F8022B03
:1005E00011F0804F18BF00F8012B7047704770471B
:1005F0007047000000487047605200207047704705
:100600007047704738B504460A4600206946AFF384
:100610000080002808BF38BD02460099204600F03F
:1006200067F8012038BD012000F07CB8F8B5AFF3C1
:100630000080054600200C46102000BF0646A81981
:10064000A0420DD9324669460020AFF30080070072
:1006500008BF00F067F80098A04218BF0546C4190B
:10066000FFF7C8FF05600746F01D20F00700461998
:10067000284600F00AF8B44208BFF8BDA21B314674
:100680003868BDE8F84000F033B800210160C0E9E7
:10069000011070471020704770B50446051FFFF722
:1006A000A9FF0068002C14BF446870BD002C18BF5F
:1006B000AC423CBF20466468F8D301680A18AA42DD
:1006C00018BF456003D12A680546114401602868B7
:1006D0004119A1421CBF6C6070BD616869602168EE
:1006E0000844286070BD0000004870475852002040
:1006F000034640688C46002818BF88423CBF03462A
:100700004068F8D318681844884207D00CF10300F9
:1007100020F00700001D411A521A0146081D0A6008
:10072000FFF7BABF10B500F039F8BDE8104000F08F
:100730002FB870477546FFF7D7FFAE4605006946EC
:10074000534620F00700854618B020B5FFF7BAFEE3
:10075000BDE820404FF000064FF000074FF00008C2
:100760004FF0000B21F00701AC46ACE8C009ACE843
:10077000C009ACE8C009ACE8C0098D46704710B5A7
:100780000446AFF300802046BDE81040FFF785BE69
:10079000002801D000F02AB87047000010B50128E9
:1007A00005D0002103A000F027F8012010BD09A109
:1007B000F8E7000053494752544D454D3A204F75D4
:1007C00074206F662068656170206D656D6F727949
:1007D000000000003A2048656170206D656D6F7201
:1007E0007920636F72727570746564000149182016
:1007F000ABBEFEE72600020070B505460C460A2097
:1008000000E06D1C00F011F835B128780028F8D10F
:1008100002E0641C00F009F814B120780028F8D137
:10082000BDE870400A20AFF3008008B569468DF836
:1008300000000320ABBE08BD2DE9F0410646354857
:100840000078012806D0022806D0042803D0092801
:100850005BD100BF00BF00BF2E490A22086A4831A1
:10086000FFF771FE00284FD12A48006A00F10A0400
:1008700035462848006AC07C00F0020000B145E01F
:1008800014F8010B287014F8010B687014F8010BB0
:10089000A87014F8010BE87014F8011B1D4880F8CB
:1008A000521014F8011B80F8531014F8011B80F843
:1008B000541014F8011B80F8551014F8018B14F82B
:1008C000017BB8F1000F1ED107F00100224631680C
:1008D00000F029F8B8B107F001000E49886600223F
:1008E0000321022000F02CF90B480A4988620B48CA
:1008F0000068C8629FED0A0A084680ED070A0320D7
:10090000087000F0A5F900BF00E000BF00BFBDE81F
:10091000F0810000245100200C5F0000687B000083
:100920000AD7A33C7047034601207047002009E026
:1009300040F20132054941F8202001218140044A5A
:100940001160401C2028F3DB7047000000070050B6
:100950000C0500502DE9F0470B461746B0F9009002
:10096000A3F800904C469B1C8678001D7F1E4FF01C
:10097000010850E0DFF8AC9059F82620B8F1000FDC
:1009800004D090F8009009F00F0104E090F8009076
:100990004FEA2911401CB8F1000F02D14FF00109B4
:1009A00001E04FF00009C846DFF87C9059F821902B
:1009B0004E44002E00DA0026582E00DD582601F0A5
:1009C000080C01F00701D50801F00409B9F1000F86
:1009D00000D0154401F00209B9F1000F01D005EB78
:1009E000520501F00109B9F1000F01D005EB9205A4
:1009F000BCF1000F01D0641B00E02C4414F5004F43
:100A000000DA0A4CB4F5004F01DB47F6FF740FFA29
:100A100084F923F8029BB7F10009A7F10107A9DCCB
:100A2000BDE8F08768AF0100CCB001000080FFFF97
:100A300070B52DED028B04460D46B0EE408A174886
:100A4000806A18BB00F0EAFC1449496C88421ED940
:100A500000F0E4FC41F28831014410484164002276
:100A60000321022000F06CF80C488462C56280ED1E
:100A7000078A00200A49086001208107086000BF3A
:100A8000074800680028FBD000F0E2F802E00120EF
:100A900081074860BDEC028B70BD0000245100202E
:100AA00000010040002020490860091D0860042062
:100AB0001D490C3108607D201B493C310860012034
:100AC0001A49C8601A49086000041849C1F80403AB
:100AD00006201849086008211648083001600120E6
:100AE0001449603908600020091D08608815091D37
:100AF00008600220091D08600120091D086000200F
:100B0000091D08600C480B4940390860022109485A
:100B10003C3801600021001D0160001D01600020C3
:100B2000064908807047000004950040009000408E
:100B30000092004060C50140000000200600002037
:100B400070B506460C46154600F074F8012E0CD020
:100B5000022E13D0032E19D101203449086040F22F
:100B60006B1032493031086018E002202F490860CC
:100B700040F26B102D49303108600FE003202B4903
:100B800008607D2029493031086007E004202749AA
:100B900008607D2025493031086000BF00BF012C6E
:100BA00006D0022C09D0032C0CD0042C14D10EE05A
:100BB0004FF480701E49086013E04FF480701C49A8
:100BC00008600EE04FF480701949086009E04FF4A6
:100BD00080601749086004E04FF4806014490860A1
:100BE00000BF00BF35B1022D09D0032D0CD0042D5C
:100BF00014D10EE000200E49091D086013E0022008
:100C00000B49091D08600EE003200949091D086011
:100C100009E004200649091D086004E00120044998
:100C2000091D086000BF00BF70BD000010950040A6
:100C300008C5014000B500F027F8002003494861CD
:100C400088618862C862C86300BD0000245100202A
:100C50000B48008898B901200949088009490860B3
:100C60000920002809DB00F01F0201219140420900
:100C7000920002F1E022C2F8001100BF00BF7047ED
:100C8000060000200090004015480088012825D16A
:100C90000020134908800120124948601249486029
:100CA000C8600920002817DB00F01F0201219140D5
:100CB0000E4A430942F8231000BF00BF00BFBFF334
:100CC0004F8F00BF00BF00BF00BF00BF00BFBFF31A
:100CD0006F8F00BF00BF00BF00BF00BF70470000A4
:100CE0000600002000C001400090004080E100E0CC
:100CF0000020084908600848D0F80C01074800683F
:100D000007490A6801219140084010B101200549B6
:100D1000486670470C11004000100040301500403C
:100D2000081400402451002001210B4A11600021C9
:100D30000A4A116001210A4A116000BF0749096887
:100D40000029FBD00449091D08680021034A1160ED
:100D50000121034A5160704704D5004000D1004092
:100D600000D000400848006868B1002006490860CB
:100D70000648D0F840010120044988600448006812
:100D8000401C03490860704740B1004000B000407B
:100D90000C0000200748006858B100200549086091
:100DA0000548D0F84001012003498860002003492C
:100DB0000860704740110140001001401000002001
:100DC00010B56C211F48FFF7EAFB1F481D49C8609A
:100DD0004FF420500861002048618861B7EE000A96
:100DE000084680ED070A00200870184808624FF492
:100DF00080704862582048705221124881705E21EC
:100E0000C17000210171A5200E4981F848005A21C6
:100E10000C4880F84910442180F84A104D2180F890
:100E20004B105A2180F84C10A52180F84D1008492C
:100E30000968C0F84E1000F0BFFB012005490860AA
:100E400062B610BD24510020240000202450002050
:100E5000FCFF0700780500402DE9F0410546884673
:100E60001746114E2C46E07C40F00200E074A6F1DB
:100E7000580000780A2804D1E07C40F00400E074B7
:100E800003E0E07C20F00400E07430782075707896
:100E90006075B078A075F078E0753A46182128465C
:100EA00000F078F8BDE8F0817C5100201249097803
:100EB00081421FD0104908700021104A11600121A1
:100EC0000F4A116100BF0D4909680029FBD008B124
:100ED000012100E002210B4A11600021074A103A6B
:100EE00011600121064A516000BF044910390968A8
:100EF0000029FAD0704700000800002010110040BF
:100F0000001000403015004010B5044612201B4967
:100F1000086004201A4908600020091D0860091DA6
:100F200008601848091D086001201549283108602B
:100F30004FF6FF701249303108601348091F0860EE
:100F4000200E5A2141EA00200D49183108600F484F
:100F50000B491031086024F07F40091D0860002013
:100F60000749203108600120091D08600820084950
:100F7000C1F80403012000F0B9FB10BD00120040CD
:100F80000C150040FF4A0203211001005AA5A500DC
:100F90000010004010B5034601202C4CE0602C48A6
:100FA000006800F07F00904209D12948483000686D
:100FB000092804D32648483000680B281ED9002091
:100FC000244C20600120214C206100BF2148006892
:100FD0000028FBD0642092FBF0F400FB14201C4C92
:100FE000206000201B4C103C20600120174C20602A
:100FF00000BF1848103800680028FAD01448103094
:10100000006820F47F404A2901D94A2400E00C46B8
:1010100040EA04200E4C103420600D48001F03608D
:1010200000200C4C241F20600820084CC4F8080342
:101030000120A06000BF0748001F00680028FAD008
:101040000020044C241F206010BD00000010004050
:10105000081500401011004070B505460E461446B4
:1010600001203149C860314991F85210A14201D0A4
:10107000012100E000210846FFF718FF2C48006816
:1010800000F07F00A04208D129484830006820B114
:1010900027484830006803281ED9002025490860E9
:1010A00001202149086100BF224800680028FBD0C8
:1010B000642094FBF0F100FB11401D490860002002
:1010C0001C491039086001201749486000BF1948C1
:1010D000103800680028FAD015481030006820F455
:1010E0007F404A2E01D94A2100E0314640EA0120E2
:1010F0000F49103108600E48001F056001200A49A1
:10110000886000200B49243108600749C1F830018C
:1011100008200949086000200349C1F80C0101209A
:1011200000F0E4FA70BD00000010004024510020DF
:10113000081500401011004004130040012011491F
:10114000C86008610820104908600120002817DBEA
:1011500000F01F02012191400C4A430942F823107C
:1011600000BF00BF00BFBFF34F8F00BF00BF00BF75
:1011700000BF00BF00BFBFF36F8F00BF00BF00BF45
:1011800000BF7047001000400813004080E100E0FD
:1011900000200D49086001208107086000BF0A484F
:1011A00000680028FBD000200749091D0860074996
:1011B000086001208107886000BF0348001D0068A7
:1011C0000028FAD0704700000001004018050040D8
:1011D00001480249086070470090D00320000020B9
:1011E00010B500F0C7FA10B15C485D49486700F0DF
:1011F000D9FA28B15B480068C0F342305A49086008
:1012000000F0FAFA28B15948006820F08070574978
:10121000086000F009FB48B10020554908604FF014
:101220008041C1F810015049091F086000F026FBF9
:1012300018B103204C496431086000F037FB68B1F5
:1012400005204C49086001204A4978310860002097
:101250004849083108603F20091F086000F03EFB44
:10126000002855D044480068444908604248001DA1
:101270000068091D0860404808300068091D0860C2
:101280003D480C300068091D08603B48103000687C
:10129000091D0860384814300068091D0860364888
:1012A0001830006835492031086033481C30006828
:1012B000091D0860304820300068091D08602E486C
:1012C00024300068091D08602B4828300068091D7B
:1012D000086029482C300068091D08602648303015
:1012E0000068264940310860234834300068091DF1
:1012F0000860214838300068091D08601E483C30ED
:101300000068091D08601C4840300068091D08601D
:1013100000F006FA30B113481430006800F04F00B6
:101320001749086011487438006840F470000F498C
:101330007439086000BF00BF00BFBFF34F8F00BF0C
:1013400000BF00BF00BF00BF00BFBFF36F8F00BF73
:1013500000BF00BFFFF73CFF10BD00000DF0ADBAAD
:1013600000C00740440200103C050040FCED00E0D6
:101370000C010040105600400404001020C500403D
:10138000E40E004010B52DED068B044601201B49EC
:101390004860886000201A490860204601F09DFAE4
:1013A00041EC1A0B9FED170B53EC102B01F0A8FA30
:1013B00041EC190B9FED150B53EC102B01F0B8F914
:1013C00041EC180B01F05CFA0D49383108604FF41C
:1013D000803010490860012008490860112000F0A1
:1013E00092F901200C49086000E020BF0A4800681B
:1013F0000028FAD1BDEC068B10BD000000100140A2
:10140000081501401904560E2D62404000000000EE
:101410000000E03F041301401000002070B50B20D5
:1014200000F046F90C4805680C48046800BF0B48FA
:101430000068A042FBD0094804680B2000F063F963
:101440004FF47A706043C40B05EB4500C0EBC51048
:1014500004EBC00070BD00000C00002004B500408B
:1014600010B500200C49086001200C4948608860D4
:1014700000200B49086047F6FF70094938310860C1
:101480004FF48030074908600120044908600B20B0
:1014900000F039F910BD00000C00002000B0004041
:1014A00008B5004004B3004030B5364BDA689B6A9B
:1014B0002BB1344B5B69334CA469A34207D3314B46
:1014C0005B6903F500732F4CA469A34212D22D4B24
:1014D0005B692C4C2469B3FBF4F504FB153302EB78
:1014E0004302284B5B695B1C264C63611388264CC6
:1014F000238002E00023244C2380224BD3ED070AF3
:10150000214BB3F9003000EE103AB8EEC00A20EEDD
:10151000800ABDEEC00A10EE100AB0F5004F02DBE3
:1015200047F6FF7003E010F5004F00DA174803B2EA
:10153000154C23802346B3F90030302B07DA2346BD
:10154000B3F9003013F1300F01DD002323800E4B7F
:10155000B3F9003003F50041090ACBB203F50043AB
:101560000B4C2380C1F58073DBB203F5004363802D
:101570000123084CA3600023074C2360074BD3F8DA
:10158000403130BD24510020040000200080FFFFC6
:101590000000002000C00140409100400090004049
:1015A00010B50448007F10B101F02CF801E000F004
:1015B00079FF10BD3852002070B5002300214FF094
:1015C00080552A696D69AC1E02FB04F007E020C853
:1015D0000B4EB56508C80831914200D303E0056899
:1015E0006D1C002DF3D100BF054DAD6D25B94FF039
:1015F00080552D6E024EB565014DEB6570BD000046
:101600002451002010B52DED068B044601201F4902
:101610004860886000201E490860204601F05DF99E
:1016200041EC1A0B9FED1B0B53EC102B01F068F9EA
:1016300041EC190B9FED190B53EC102B01F078F8CE
:1016400041EC180B01F01CF91149383108604FF4D6
:1016500080301449086001200C490860112000F016
:1016600052F801201049086000E030BF0E480068C1
:1016700018B10E48406E0028F7D00C48406E18B1E3
:101680000120BDEC068B10BD0020FAE700100140E0
:10169000081501401904560E2D624040000000005C
:1016A0000000E03F041301401000002024510020FE
:1016B000002817DB00F01F02012191400A4A43096C
:1016C00042F8231000BF00BF00BFBFF34F8F00BF21
:1016D00000BF00BF00BF00BF00BFBFF36F8F00BFE0
:1016E00000BF00BF7047000080E100E0002809DB78
:1016F00000F01F02012191404209920002F1E02214
:10170000C2F800117047002809DB00F01F02012118
:1017100091404209920002F1E022C2F800117047A4
:1017200013480078062820D11148001D007800F0E9
:101730000F00D0B90E480830007800F0F0003028D3
:1017400001D1012070470A480830007800F0F0000D
:10175000402801D10120F5E705480830007800F065
:10176000F000502801D10120ECE70020EAE700005A
:10177000E00F00F00A48007806280ED10848001D46
:10178000007800F00F0040B905480830007800F0FC
:10179000F000302801D1012070470020FCE7000054
:1017A000E00F00F013480078062820D11148001DF2
:1017B000007800F00F00D0B90E480830007800F033
:1017C000F000302801D1012070470A480830007825
:1017D00000F0F000402801D10120F5E7054808306D
:1017E000007800F0F000502801D10120ECE7002043
:1017F000EAE70000E00F00F00A48007806280ED162
:101800000848001D007800F00F0040B90548083076
:10181000007800F0F000302801D10120704700204E
:10182000FCE70000E00F00F013480078062820D104
:101830001148001D007800F00F00D0B90E480830A4
:10184000007800F0F000302801D1012070470A48EC
:101850000830007800F0F000402801D10120F5E7C1
:1018600005480830007800F0F000502801D1012030
:10187000ECE70020EAE70000E00F00F00A480078FB
:1018800006280ED10848001D007800F00F0040B96E
:1018900005480830007800F0F000302801D1012020
:1018A00070470020FCE70000E00F00F00A480078D5
:1018B00006280ED10848001D007800F00F0040B93E
:1018C00005480830007800F0F000302801D10120F0
:1018D00070470020FCE70000E00F00F00A480078A5
:1018E00006280ED10848001D007800F00F0040B90E
:1018F00005480830007800F0F000502801D10120A0
:1019000070470020FCE70000E00F00F070B50026F3
:1019100000201E49086048601D49086048601D4855
:101920000078002830D101201A4908700420174996
:10193000C86020208860C968C800FEF7D5FD05464C
:1019400012480561EDB10146C9680246926801FB83
:1019500002F0FEF7C9FD054685B1002409E00B48F9
:10196000806804FB00500949096901EBC401486023
:10197000641C0648C068A042F1DC04E048F201069D
:1019800001E04FF4004600BF304670BD905100208A
:10199000A45100201400002010B50446607980098D
:1019A00030B907480749097800EB8100807828B9E9
:1019B000204600F009F808B9012010BD0020FCE71E
:1019C000B851002015000020014607484079032245
:1019D000B2EB901F06D00879034A1279904201D1E8
:1019E000012070470020FCE7180000202DE9FE4F81
:1019F000002001908246FEF799FFFFF7C9FBFFF731
:101A0000DFF9FFF72DFDFA490868FFF77DFA00F0CE
:101A1000CDFCFFF747F803E3F648406E20B9F548E0
:101A200001780198814202D0F24800780190F14893
:101A3000406E70B10020EF494866084600780628DD
:101A400002D10720087003E002A8FEF7F5FE00BFF0
:101A500000BFE84800780D2875D2DFE800F00716CF
:101A6000289C75BAC9E8FDFCFBFAF90000220321A5
:101A70000220FFF765F8FFF7D1FC41F288310844F6
:101A8000DC490863012008707EE2DA4B1C795B1C9C
:101A90001A5D5B1E596A186AFFF7DEFAFFF7BEFC93
:101AA00000F59070D3498860022008706CE220BF76
:101AB000FFF7B4FCCF498968884233D9FFF7AEFC01
:101AC00000F59070CB49886004200870FFF736FB62
:101AD000C8480079401C032190FBF1F201FB120081
:101AE000C1B2C4480171FFF799FCC249096B884231
:101AF00028D9FFF793FC41F288310844BD490863B7
:101B00000846C06D00B100BFBB48BA498862BB48F7
:101B10000068C8629FEDBA0A084680ED070AFFF721
:101B200097F80FE0B748006818B1B6480068032876
:101B300008D9B04B1C795B1C1A5D5B1E596A186A88
:101B4000FFF78AFA20E21EE220BFAA48806A68B93D
:101B5000012081074860A7480079022806D1FFF7D5
:101B6000E3F800F58E742046FFF70CFCFFF756FCF7
:101B7000A049896888420DD90020A3490860012046
:101B80008107086000BFA04800680028FBD0012042
:101B900098490870F8E19748806AC8B9954B93F85E
:101BA000552093F8541093F85300FEF7C9FFB0EE98
:101BB000000A904880ED070AFFF74AF805208D4992
:101BC0000870FFF72BFC43F6982108448949086305
:101BD000DAE1884B93F85220596A186AFFF73CFA09
:101BE000062084490870FFF719FC82498860CBE120
:101BF0000820FFF707FDC8B9FFF710FC7D49896889
:101C000001F57A61884203D900207A4908700DE015
:101C10007C48006818B17B480068032806D9754BDA
:101C200093F85220596A186AFFF716FAACE14FF0A0
:101C300000080DF10809FFF781FA6E48076A3D4672
:101C4000287889F80000687889F80100A87804E00D
:101C500083E18DE127E111E1EFE089F80200E87806
:101C600089F80300FFF7DAFB834666480838006806
:101C7000552802D90AF1010A01E04FF0000A5D4837
:101C800080681830584508D36048006820B95D481E
:101C900008380068552800D82DE05648466B082EB5
:101CA00000DD0826534890F8530008B9102000E0E2
:101CB0000820464326B94F4880681830584502D25C
:101CC0000120810748604B4880681830584501D290
:101CD000202484E04D48006858B94A480838006814
:101CE000552806D9BAF10A0F01D9202477E0052436
:101CF00075E0082473E03F4880693E490969B0FBFC
:101D0000F1F201FB12003B49C96801EB4000009071
:101D10003848C06B401C3749C8633846009900F00A
:101D2000CFF980463348406B082817D36879C0F351
:101D3000011098B9FEF77EFF01208107486000245A
:101D40002C48466B082E00DD08262A4890F85300E0
:101D500008B9102000E0082046433FE0B8F1000F2A
:101D600006DD24488069404422498861FEF770FFFF
:101D70000026204890F85300D8B9287900F00100D7
:101D800058B968790121B1EB901F02D0B8F1000F6A
:101D900001D1052422E00B2420E068790121B1EB78
:101DA000901F02D0B8F1000F01D10F2416E01424C7
:101DB00014E0287900F0010040B968790121B1EB05
:101DC000901F01D1032409E0062407E0687901216E
:101DD000B1EB901F01D1062400E0092400BF0520CB
:101DE00004490870B8F1000F12D0012011E0000082
:101DF000FCFF07002451002054500000085F000041
:101E00000AD7A33C501500400001004000140040D8
:101E1000002001462846FEF785FD3119481EFFF7D0
:101E2000B1FA00208249086001208107086000BFE4
:101E30007F4800680028FBD0A6E07E4B1C795B1C25
:101E40001A5D5B1E596A186AFFF706F8794B1C7910
:101E50005B1C1A5D5B1E596A186AFFF7FDF80920C2
:101E600074490870FFF7DAFA00F11003FEF75CFF1F
:101E700000F00F0018446F49886085E0FFF7CEFA44
:101E80006C49896888420DD96A48006E18B90120EA
:101E90006849087006E06748006E401E654908669C
:101EA0000820087070E0FFF7B9FA62498968884233
:101EB00052D9604B1C795B1C1A5D5B1E596A186A0B
:101EC000FEF7CAFF5B4B1C795B1C1A5D5B1E596AEF
:101ED000186AFFF7C1F8FFF7A1FA00F11003FEF747
:101EE00023FF00F00F001844524988600846006E36
:101EF00020B10846006E401E08662DE04D48806AFD
:101F000050BB4C48C06D58B1002203210220FEF79F
:101F100017FE49484749886248480068C8620AE095
:101F2000002203210220FEF70BFE4548414988624A
:101F300044480068C86203203E490870FFF76EFA03
:101F400041F2883108443B490863B7EE000A08466D
:101F500080ED070AFEF77CFE16E0FFF7EFF820BFE2
:101F6000B7EE000A384801683848FEF761FD0BE01B
:101F7000FFF7E4F820BFB7EE000A3548016835489E
:101F8000FEF756FD00E000BF00BF2A48806AC0B3DC
:101F90002848C668D0F828804069403025498969BA
:101FA00088423CD92348C06A22498969451A802D54
:101FB00001DD802515E0002D13DC00251D4840695A
:101FC0001C49896988420CD3FEF734FE1948007811
:101FD0000C2803D0174800780B2802D1032015499C
:101FE00008701448806913490969B0FBF1F201FBDC
:101FF000120006EB40060F48806908EB40080024F9
:1020000005E00DE038F8140026F81400641CAC421A
:10201000F8DB0848806928440649886100BF00BF92
:10202000044800780D287FF4F7AC0020BDE8FE8F4F
:102030000001004024510020F0DC0000F0360100D7
:102040006C7B0000ECDC000064AF010090AA010092
:102050008CAA0100F43601000146D1F88004C1F8D1
:10206000800470470246505808B101207047002094
:10207000FCE7002242507047C0F808137047024640
:10208000D2F80403084008B1012070470020FCE7A3
:102090000122425070470146D1F88004C1F8800403
:1020A00070470246505808B1012070470020FCE7F5
:1020B000002242507047014640F23C504058704761
:1020C0002DE9F04105460E4600272C46204600F03B
:1020D00079F82046FFF760FC00285AD004F1060882
:1020E000802231464046FEF735FC3149087800EB46
:1020F000D07149102F4A1278914203DA2C4909789D
:10210000102916DC2C492D4A127801EB82018978BE
:10211000012907D12849294A127801EB8201C9789F
:10212000482906DC2449254A127801EB82014978C6
:1021300091B1802004E00022411E26F8112088B2CF
:102140000028F8DC1C491D4A127801EB8201C9788D
:10215000482900DC00BF00BF207919490871607967
:1021600001091748407961F30510154948716079F4
:1021700081091348407961F38710114948710E486D
:102180000E49097800EB810040780D49887180275D
:1021900000BF0A490978481CC11700EBD1614911F9
:1021A000A0EB4111054A11703846BDE8F0810000EE
:1021B0001700002016000020B85100201500002054
:1021C000180000202DE9F043724F3F7807F11F06F9
:1021D000F71706EBD7677F11A6EB471707F0FF0C41
:1021E000841DE17800263246E670002504E0665D35
:1021F0001644F2B26E1CB5B2442DF8DBE1700F4606
:102200004FEAE17801EB58684FEAE818A1EBC818EB
:1022100016464FEAE27902EB59694FEAE919A2EB57
:10222000C919C84502D04FF0010801E04FF000087D
:102230004346594E574F3F7806EB8706B6789E4285
:1022400013D0012B08D1554E3678202E04DA534E88
:102250003678761C514F3E703BB9504E367826B1D9
:102260004E4E3678761E4D4F3E7006794A4FDFF857
:10227000248198F8008007F82860467AF609DFF88C
:10228000148198F8008007EB88077E70424E414F1A
:102290003F7806EB8706B370414E36683E4FDFF855
:1022A000F48098F8008007EB8807FE703A4F17F823
:1022B0002C707E1C384FDFF8DC8098F8008017F80F
:1022C00028704FEAE67806EB18684FEA2828A6EB54
:1022D000082847453AD0DFF8C080DFF8B89099F871
:1022E000009018F8298008F58078DFF8AC9019F88C
:1022F0002C90A8EB0908A8F101064FEAE67806EB56
:1023000018684FEA2828A6EB082808F0FF07254E92
:102310003678BE4207DD234E3678F61BDFF8848020
:1023200088F8006004E00026DFF8788088F8006014
:102330001C4E367826B90026DFF8608088F80060E9
:102340000026DFF86480C8F838600DE0154E367856
:10235000202E04DA134E3678761C124F3E70124E41
:10236000B66B761C104FBE630B4E0A4F3F7806EBE0
:10237000870676784EB14679C6F301162EB90A4E15
:10238000766B761C084F7E6302E00026064F7E6364
:10239000BDE8F08315000020B85100201600002091
:1023A00048150040170000202451002010B50020DF
:1023B000054908710846407920F0C000C0304871D6
:1023C000FFF7A4FA10BD00001800002010B5104857
:1023D000C07D40B94FF484710E48FFF74AFE00BF3C
:1023E0000D48006810BD4FF484710A48FFF741FEA4
:1023F00000BF09480068C0B20549C968044A527E56
:1024000088540348407E401C0149487600BFE9E7F4
:102410003852002000200040182500407FB50446B7
:102420000D4601208DF800008DF808400195034805
:1024300001684268684690477FBD0000385200201E
:1024400010B54FF48E710948FFF713FE08488068F5
:102450000749898A445C0648808A401C044988826E
:1024600020460449086000BF10BD00000020004065
:10247000385200201C2500401FB5044600208DF86E
:1024800000008DF80840064880680190002004494B
:102490008875084601684268684690471FBD00007D
:1024A000385200207FB54FF400715448FFF7E7FD24
:1024B00068B34FF492715148FFF7D4FD38B34FF42D
:1024C00092714E48FFF7D5FD4FF401714B48FFF76D
:1024D000D3FD4B48807E18B904214848FFF7D8FD4A
:1024E00002208DF800004548FFF7B6FD03904448F0
:1024F000C17D8DF80810C068019000204049C87562
:102500000876084601684268684690473CE0042126
:102510003A48FFF7B4FD002836D04FF484713748AD
:10252000FFF7A0FD00282FD0FFF750FF3448C07DF3
:102530003349497E884227D13148007E80B13048F6
:10254000C468457E007E2E49C87508460069C8608B
:1025500000200876487621462846FFF75FFF13E003
:102560002748807E18B904212448FFF791FD4FF4D5
:1025700001712248FFF780FD00202149C8750A46F5
:10258000D168507EFFF74AFF4FF48E711B48FFF76A
:1025900069FDA0B11A48808A1949897D884202DA0A
:1025A000FFF74EFF0BE04FF48E711448FFF761FD0B
:1025B0001348807D18B11249887DFFF75DFF4FF405
:1025C000A2710E48FFF74EFDB0B14FF4A2710B4857
:1025D000FFF74FFD0A48807E18B100210748FFF73A
:1025E00057FD0748C07D38B100200549C8750A4627
:1025F000D168507EFFF712FF7FBD00000020004031
:10260000385200207FB54FF492714648FFF749FDDC
:10261000F0B14FF492714348FFF74AFD02208DF864
:1026200000004048FFF737FD03903E48FFF743FDA9
:10263000C1B28DF808103C48C068019000203A49AA
:10264000C87508760846016842686846904737E0D2
:102650004FF488713348FFF724FD002830D04FF441
:1026600088713048FFF724FD2E48FFF724FDC4B2DF
:102670002D48C07DA04222D12B48007EB8B12A4807
:10268000C5682020294909688143264AC2F80012FA
:1026900000BF2548007E2449C87508460069C86007
:1026A0000020087629462046FFF7B8FE07E0002004
:1026B0001D49C8750846C1682046FFF7AFFE00BF38
:1026C0004FF4A2711748FFF7ECFC98B14FF4A271D8
:1026D0001448FFF7EDFC1448C07D58B100201249A2
:1026E000C8751048FFF7E7FCC4B20F48C168204620
:1026F000FFF794FE4FF490710A48FFF7D2FC78B1CF
:102700004FF490710748FFF7D3FC0748807D38B13C
:10271000044840F24C510958CCB22046FFF7ACFEB9
:102720007FBD000000200040385200200022004001
:1027300010B591EA030F48BF83F0004300F1E68132
:10274000841A71EB030C05D2121943EB0C03001B26
:1027500061EB0C01DFF824E14FEA1154A4EB135CA8
:102760001EEA430F18BF9EEA445F73D023EA0E03AC
:10277000DCF1200E21EA045143F4801332D322FA13
:102780000CFE10EB0E0023FA0CFE41EB0E01CCF117
:10279000200E03FA0EFE10EB0E0051F10001B1F510
:1027A000801FCCF1200E32D201EB045112FA0EF24E
:1027B000BDE8104058BF7047401C38BF5FEA420276
:1027C00018BF7047002814BF20F0010041F100013C
:1027D0004FEA410313F5001F38BF7047A1F1C04114
:1027E00000F086B9012A43EB0302ACF1200CDCF1C6
:1027F0001F0E32BF4FF0000E23FA0CF310EB030054
:1028000041EB0451B4EB115FD0D0A1EB045101F5C1
:10281000801149085FEA300001EB04510ED350F1FA
:10282000000038BF12FA0EFE08D1BDE81040C9E71B
:10283000401C38BF5FEA4202CAD1C3E7BDE810407E
:102840004FEA410313F5001F38BF7047A1F1C041A3
:1028500000F04EB99EEA445F08D011EA5E0FBDE871
:10286000104004BF01F0004100207047BDE8104057
:1028700070B500F0EFF800BF64FBBE3E0000E0FF63
:102880004FEA1153A3F58063D3F11E03A8BFD3F120
:10289000200C08DB4FF0004242EAC12252EA5052BB
:1028A00032FA03F0704709420BD4102BC4BF00204A
:1028B000704703F5787CBCF1FF3F05D04FF0FF3047
:1028C00070474FF00000704770B500F0C3F800BFCC
:1028D0004992248000207047F0E7B0FA80F310FAA4
:1028E00003F10AD0C3F11D0303F580634FEA4150A1
:1028F0004FEA035202EBD12170474FF000007047BE
:10290000DFF848C170B51CEA111E1EBF1CEA131582
:102910009EEA0C0F95EA0C0F00F06F8081EA030429
:1029200023EA4C134EEAD47E21EA4C1141F4801183
:1029300043F48013AE44A1FB024CA0FB0365AEF14F
:102940007F7E361955EB0C05A1FB034C4CF10003BF
:10295000A0FB021C16EB0C06654153F10003094273
:1029600018BF46F0010613F4007F0BD14FEA033184
:102970004FEA0530340341EA155140EA16506FF032
:1029800003020AE04FEAC3214FEAC520F40241EAFC
:10299000555140EA56506FF0020202EB2E4201EB15
:1029A000025585EACE710AD05FEA440C18BF24F0C4
:1029B000004450F1000041F1000120EAD47040F2DF
:1029C000FE7C624500D270BDA84214BF4FF0804427
:1029D0004FF04044002E08BF0024BEF1806FA8BF16
:1029E000A1F1C041BDE8704080F282804FF000004C
:1029F00001F1C04101F0004170479EEA0C0F0CEA62
:102A0000131518BF95EA0C0F06D04FF0000081EAAD
:102A1000030E0EF0004170BD00F01CF88900013E6D
:102A200000F007B800F009B84FEA430C5FEA5C5CBD
:102A300008D081EA030100F05BB84FEA410C5FEA7D
:102A40005C5CF6D14FF00000014970470000FF07C1
:102A50000000F87F0EF1020E2EF0030E5EF8046BFC
:102A6000364205D4012A43EB030515F5001F12D8A1
:102A7000012841EB010C1CF5001F0CD80ED14FEAC8
:102A8000D17C15F5001F0CEB4C0C0CF1020C08BFAF
:102A90004CEBD37C04E04FF0080C01E04FEAD37C10
:102AA0000CEB4C0526FA05F606F00706B6F1040C09
:102AB00006D20EEB860CBDE870404CF0010C60476E
:102AC000DFE80CF0090B02024FF000414FF000006C
:102AD000A1F5002170BD19461046012851EB0104F3
:102AE00018BFD4F5001484BF002001F0004170BD70
:102AF0000808A0F500114FEA3101704710B591EABE
:102B0000030F48BF83F000433FF51AAE841A71EB00
:102B1000030C07D212198CF0004C43EB0C03001B82
:102B200061EB0C01DFF8A4E14FEA1154A4EB135C54
:102B30001EEA430F18BF9EEA445F00F0B08023EA0C
:102B40006E03524221EA0451C3EB6E0338BF5B1E91
:102B5000DCF1200E25D322FA0CFE10EB0E0043FA16
:102B60000CFE41EB0E01CCF1200E03FA0EFE10EB31
:102B70000E0051F10001CCF1200E29D412FA0EF210
:102B800001EB0451BDE8104058BF7047401C1CBF0A
:102B9000B2F1004F704700280CBF491C20F0010023
:102BA000704712EB020E43EB030218BF4FF0010E09
:102BB0004EEA4202ACF1200CDCF11E0E54D943FA6D
:102BC0000CFE10EB0E0051F1FF31CCF11E0ED5D5ED
:102BD0000EF1010E12FA0EFE404141EB010101EB34
:102BE000445C5FEA5C5C10D910EBDE7001EB0451D1
:102BF00038BFBEF1004FBDE8104018BF7047002835
:102C00000CBF491C20F00100704730D24FEAD42C91
:102C100011F5001124F400641BD0B1FA81F20B3AD3
:102C2000A41AA41ED2F12003914030FA03F31943F1
:102C3000904001EBCC71002C01EB0451BDE8104039
:102C4000A8BF704701F1C0414FF0000001F0004102
:102C50007047B0FA80F310FA03F100D110BDE41A06
:102C6000173C4805C90AE4E701EB045110BD4910BF
:102C700001EB0451BDE810404FEA300002E04FF094
:102C8000000170474A0008BF0042F8D0B2F5001FAB
:102C900028BF704701F000414FF0000070479EEAE6
:102CA000445F07D011EA5E0FBDE8104004BF002169
:102CB00000207047BDE8104070B5FFF7CBFE00BFA5
:102CC00040DFF63E83F00041104670470000E0FF11
:102CD0004FF04070E1EE100A7047000009001B0041
:102CE000240029001F000A0001000800110019003B
:102CF0001B0018001600130009000000FDFFFBFF79
:102D0000F5FFF3FFF7FF01000B000A0005000600C6
:102D1000090007000400FFFFFBFFFFFF0B000F008F
:102D20000500F8FFEAFFD3FFBFFFC0FFD0FFD8FFC9
:102D3000DCFFE7FFF0FFF0FFEDFFEAFFECFFF6FF3F
:102D4000FEFFFBFFF3FFECFFECFF0000220034006E
:102D50002300090004000C000D00060008000E000E
:102D60000E000F0012000C00FBFFE2FFC2FFA3FFEA
:102D70008CFF89FF9EFFB8FFBEFFBCFFCDFFDDFFCC
:102D8000CBFFADFFB2FFD4FFE3FFD8FFD6FFE5FFD7
:102D9000F2FFF8FF030013001F001B000700F8FFFD
:102DA000F7FFF4FFEAFFECFFFDFF0B000700FAFF5F
:102DB000F1FFF1FFF8FF02000E0019001D001A00DC
:102DC000180016000C00FCFFEAFFD7FFD3FFE3FF5B
:102DD000EBFFE6FFE5FFE9FFE1FFD4FFC8FFBFFF20
:102DE000BDFFC4FFCCFFD2FFDAFFE7FFF7FFFDFF17
:102DF000ECFFDDFFEAFFFAFFF4FFEFFFF9FFF6FF5C
:102E0000E6FFE3FFEAFFE6FFE0FFE4FFE4FFDBFFAE
:102E1000CFFFC2FFBFFFC9FFD0FFD3FFE2FFF7FF25
:102E2000FBFFF4FFF3FFF5FFFEFF170032003A004F
:102E300035002F002500240028001300F3FFEEFFCB
:102E4000E7FFC5FFD1FF21004E003000170023002F
:102E5000300027000800E9FFE5FFECFFF2FFFFFF6D
:102E60000900FFFFF6FFF5FFECFFDDFFD8FFE0FFF5
:102E7000F0FFF6FFE8FFE2FFF0FF01000E00170091
:102E80000F00FCFFEDFFE5FFE8FFFAFF090002007D
:102E9000F4FFF5FFFEFF000000000C00130002002D
:102EA000F1FFF4FF000005000100FEFF0C0024000C
:102EB0002F002500170015002400350036002C00D7
:102EC00020000D00F8FFE8FFD9FFD0FFD4FFDAFFA4
:102ED000DAFFE0FFEFFF04000B00F9FFE4FFE1FF82
:102EE000E7FFEBFFF6FFFFFF03000B0018002800D1
:102EF000330028000A00EBFFCEFFB8FFBBFFD2FF74
:102F0000EBFFFCFF07001C003100240019004C00FF
:102F10006E002200D1FF040069005D00F8FFD8FFB9
:102F2000210053002100D5FFD2FF0F003C002D00EF
:102F30000300EDFFF0FFF4FFDEFFE9FF9400CD0199
:102F4000440329053C0611037DFB1CF514F422F60D
:102F500052F875FB88000B06420A8D0C900C190A7A
:102F6000CB05DF0040FC46F853F51FF43BF594F821
:102F700048FDF101930513088B09A3090208E20437
:102F8000E50098FC9BF8EFF551F58EF626F9E8FC84
:102F90004B012505A307C408AD0844079104ED00C3
:102FA000FAFC9EF9C8F7C0F721F975FB74FEB4016D
:102FB0009F04AC067F0703075C05D902DDFFD4FC44
:102FC00041FAC9F8DAF84FFAC3FCCEFFC902F2049D
:102FD000F305E705EF041D03B40037FE15FC85FA81
:102FE000CBF94DFA24FCCBFE6B017D03E60488058A
:102FF0002005C503FC011C0038FE9AFCAEFB95FBC6
:103000003DFC9AFD67FF3101C0020204B40499043B
:10301000AB03E30153FF9DFCB1FA19FADAFABAFCEB
:1030200054FF20029E045606DE0615064D04F601E6
:1030300057FFE4FC4EFBC9FAFBFAD7FB9EFDFFFFEE
:103040004002070421053A054804C102030116FFA6
:1030500024FDA9FB0BFB44FB3CFCFDFD4800820268
:103060004604880509067205DC03A9011DFF9CFCC6
:10307000B8FAB3F9A0F9B7FAE4FC85FF09024F04E6
:103080001E06EA064A065504860181FED9FBF4F9BC
:1030900017F984F95EFB4EFE98019104B5068A0784
:1030A000F2064B05FC022A0005FD0BFA07F8A2F711
:1030B000E1F856FBABFE8002150683081F09BD0729
:1030C000D1043901B5FDA4FA6CF8A5F795F8CFFA4B
:1030D00099FD6900E302DA045B063A07EB06240572
:1030E000570244FF54FCC9F93FF855F8E7F954FC7E
:1030F00046FF85026D055A07020814076204AF00F7
:103100006EFD6CFB58FACBF900FA4BFB7EFD1D00FF
:10311000A3029F04C105DA05DB040903C90044FECC
:10312000ADFBAFF912F908FA12FC92FE2E01A203D0
:103130007F055E060E0695043C0291FF1BFD2BFBEE
:10314000FAF9C3F9B2FAB0FC55FF0A024A04B7050E
:1031500023068205DD037401D2FE6FFC8BFA78F939
:103160009FF90DFB61FD280002037205E7060107C8
:10317000B8053F03FAFF95FCE6F978F863F8AAF979
:1031800045FCB0FF0803A6052C074F07FA05750399
:103190003600D7FC10FA81F886F815FAB0FCB8FFB3
:1031A000A902010554067706640536035F0091FD08
:1031B00059FB17FA11FA42FB45FDAAFF1602230438
:1031C0006905B405FC045A032701FFFE50FD31FCDC
:1031D000BBFB20FC49FDCFFE5F00CF01E00258039E
:1031E000350392027C011500B0FE9BFDF2FCCAFC87
:1031F00052FD93FE3600BA01C7023203E502F40124
:103200009B0029FFF7FD5CFD75FD19FE0FFF3200E5
:103210004A0102022D02E0013701400026FF47FE6D
:10322000F9FD47FEFBFED7FFB1006301BE01A60119
:103230001A013C0047FF77FEF5FDD8FD2EFEE1FEAA
:10324000C9FFC600AF0138022E029D01B20095FFF2
:1032500088FECAFD71FD87FD25FE35FF6C007A01F1
:1032600020024702FC014B013700F4FEE5FD4EFD54
:1032700041FDB9FDA6FEF0FF6A01B8026903330300
:1032800019026E00AAFE2CFD36FCFBFB97FC02FE29
:10329000F3FFEC0167031504DC03CE022F0169FF85
:1032A000D7FDB2FC25FC56FC55FD00FFFB00C80213
:1032B000090492043C04E602C60074FE84FC50FB40
:1032C00027FB2EFC21FE6D0094024C0442052605CE
:1032D000F103F901BFFFACFDFFFB00FBFCFA01FCB1
:1032E000D4FD240087026C0450050905B603AD0126
:1032F00064FF4CFDC1FB1CFB9FFB2DFD4AFF6701DA
:103300001D0326046104D803BA024001AAFF43FE4C
:1033100043FDC6FCE1FC95FDB1FEE9FF0A01EF01AA
:103320006C026F0212027D01C50006007FFF59FF8B
:1033300061FF3EFFEAFEB9FEDDFE36FFA2FF21007F
:10334000A4000F015B019D01C2019101ED00F6FF98
:10335000DCFED2FD14FDD9FC3CFD3DFEACFF30018E
:103360007B026103AE032D03F8017700FAFEA1FD95
:1033700094FC09FC29FCF9FC5AFE0400A101E102BD
:103380007B03530386025501FAFFA5FE8EFD06FD61
:103390003FFD19FE42FF70006F010B022102BA01CE
:1033A0000F0151008CFFCCFE40FE19FE58FED5FEE9
:1033B00074FF1A009900D800F6000C01F40099007F
:1033C0002C00DFFFACFF7EFF47FF0FFFF9FE21FF60
:1033D0007BFFF6FF8D0025019301B1017401E1002F
:1033E00010002CFF64FEE3FDC5FD13FEC9FEDFFFE8
:1033F00025014502F10200036B024501B8FF10FEF2
:10340000B0FCF0FB02FCF3FC9FFEB400C2024C04D3
:10341000E6046604F602ED00CBFE13FD1AFC01FC87
:10342000D0FC56FE2A00DA012403DC03D90304038E
:103430008101A4FFCCFD74FC07FC9CFCF1FDA7FFFF
:103440004F01830215030503640260013D0038FF4C
:1034500077FE18FE26FE90FE27FFB6FF20006600CE
:103460009200AA00C000E40005010301D0006B0037
:10347000DEFF51FFF7FED5FED0FEDFFE18FF88FF0E
:103480002300C50043017E0172012A01B500270017
:103490009CFF2AFFE8FEEBFE2BFF82FFCFFF12000E
:1034A00055009C00E5002101490160015401F9002B
:1034B0004E0083FFB8FE07FEA5FDC2FD5BFE5DFF6B
:1034C000AE0012023603CA0390037A02C400D5FE8E
:1034D0001BFD00FCCCFB8BFC0EFEF6FFCC01260393
:1034E000C003850389020D0177FF29FE5FFD3BFDC7
:1034F000C8FDD4FEFEFFF00079019601710136018E
:10350000F500B9008B0067005300400006008FFFF4
:1035100001FF9AFE8CFEEAFEA4FF8E007E014302AC
:10352000A10269029E01740034FF31FEA9FDB3FDC2
:1035300048FE37FF32000501A101DE018F01ED00D9
:1035400067001800D9FFA8FFA4FFCBFFF5FF070015
:103550000300F7FFF0FFF5FF0A00280048006000B5
:103560006400500037001700DCFF8CFF5AFF6BFF30
:103570009DFFBAFFC0FFCAFFD4FFD3FFDAFFEEFF03
:10358000F9FF0400220046004F003300EFFF8DFFDB
:103590002BFFE5FECDFEF1FE50FFCCFF39007F0092
:1035A000950074002100BFFF7AFF5FFF63FF82FF79
:1035B000BDFFF7FF0100C8FF74FF3EFF40FF73FF30
:1035C000D5FF49009900A9007B00150085FFF7FE93
:1035D00099FE84FEC8FE5EFF2000D8005A017D01DE
:1035E0001D014E0057FF82FEFFFDF7FD7AFE5AFFD8
:1035F0004600EF002401D80033007AFFE9FEA7FE61
:10360000C1FE2AFFC2FF5F00D8000C01EB007E0064
:10361000E5FF46FFCDFE9CFEC2FE33FFC9FF590009
:10362000C300F600EE00B6006D0030000400D9FFC4
:10363000A6FF71FF59FF6BFF8CFFA7FFD1FF1B0097
:1036400068009A00AE00A10069000B00ABFF77FF95
:1036500076FF83FF8DFFA7FFD4FFF1FFEEFFD9FFB9
:10366000C7FFCFFF04005F00B700EE00E9008A004B
:10367000E0FF32FFB1FE5DFE3FFE75FE09FFE0FF99
:10368000BE006401B001A7015501B500CDFFD1FE18
:103690001DFEECFD2DFEAEFE55FF1100B90026010A
:1036A0004A012C01E300920048000000B4FF6DFFC6
:1036B00029FFECFED1FEEEFE3BFFAAFF3600CE0056
:1036C0005701AE01B30150019900C4FF03FF70FE22
:1036D0002BFE4FFECEFE83FF4A00FB006D018E01E4
:1036E0005501C60015008DFF45FF1BFF0AFF25FF92
:1036F0006AFFBAFF00003C007200930094007C0057
:1037000060003900FAFFB4FF8DFF87FF8EFFA1FF35
:10371000CCFF02002D0040003E002B000B00F0FF0C
:10372000F2FF17004F008500A20098006C002200F5
:10373000BCFF52FF13FF19FF63FFDEFF6F00F100B4
:10374000420156013701EE0085000D009BFF48FF46
:1037500028FF3DFF74FFBAFF040049008600BA004D
:10376000D700DB00D200BB007C00030061FFC6FE77
:1037700068FE6CFED6FE92FF72003E01C801F601A3
:10378000B7010C01150011FF39FEB4FDA3FD19FEB0
:103790000BFF4A0088017B02EE02C4020802F4001B
:1037A000C6FFAEFED8FD6FFD88FD20FE24FF5C0045
:1037B00085016D02F602FB0272027E01560023FFB4
:1037C00015FE68FD42FDA2FD77FEA2FFF200260273
:1037D000FF0257031F0357021B01A9FF52FE5DFDA5
:1037E000FAFC37FD03FE39FF9C00D6019902BB02AB
:1037F000440264015A005EFF9FFE33FE1EFE58FE27
:10380000D8FE7FFF21009C00EB0012010F01E800B1
:10381000B90095006F003100DFFF97FF6BFF4EFF8F
:103820003DFF48FF75FFB8FF11007900D700110177
:10383000270126010F01D1006300DFFF62FFF5FEC3
:10384000A3FE85FEB0FE21FFBDFF660009019501C4
:10385000F2010402B001EE00DFFFC3FED7FD50FD10
:1038600054FDEFFD08FF5B0098018402F602CC02D4
:10387000FA01AF0044FF0DFE3CFDF1FC47FD3DFEAB
:10388000A0FF13013402C702C00232023C01110042
:10389000EBFE04FE80FD77FDE8FDBDFEC7FFCC001A
:1038A0009A0113022402C30109012C0060FFC1FE2A
:1038B0005EFE40FE70FEEAFE95FF4700E2005A0100
:1038C0009B01810106015A00B1FF21FFBEFE9DFE52
:1038D000C4FE20FF9AFF1C009600F6002B012E016B
:1038E0000001A8003200B2FF3FFFF2FED9FEEEFE5B
:1038F00035FFB0FF4C00E20055019E01AD016701AC
:10390000CD000B0051FFC1FE76FE81FEE1FE80FF7F
:103910003900E6006C01BA01B9015C01C3001C006A
:103920007AFFEBFE91FE90FEE4FE65FFF6FF90004D
:1039300018016701760158010F01980008007DFF0A
:103940000DFFC9FEC7FE14FFA2FF4700E0006001A3
:10395000AE01A7014701AD00FCFF54FFDDFEB1FE43
:10396000D6FE3DFFCEFF6900F3004F016B0146011B
:10397000F00083001900B3FF50FF0BFFFDFE1BFF9B
:1039800053FF9CFFEDFF3E008700B700BD009F0086
:1039900069001C00B9FF5BFF25FF1DFF26FF32FFFA
:1039A00052FF90FFD8FF1F006A00A600B6009200E9
:1039B0004D00F9FF9EFF40FFEFFEC7FEDAFE1DFF40
:1039C0007CFFEDFF6E00E50025011301C3005200EE
:1039D000D4FF59FFF5FEB8FEAAFECEFE1FFF8EFFF4
:1039E00005007300C900F200DE008D000C006FFFBF
:1039F000DBFE6FFE3AFE47FE99FE1CFFBBFF5F0039
:103A0000EE003E013201D8004F00ABFFFFFE73FE17
:103A10002DFE36FE88FE1BFFD6FF920025016E01AB
:103A2000610106017100C6FF23FF9CFE51FE5DFE91
:103A3000B8FE46FFF4FFAE00470195018E013C0140
:103A4000AF00FFFF54FFD0FE82FE71FEA5FE19FFFE
:103A5000B0FF4300B6000C013C012D01DA0060000C
:103A6000DCFF63FF08FFDAFEDEFE17FF83FF0F00B7
:103A70009B000B014A01490104018B00FBFF69FF18
:103A8000F8FED2FEFDFE5AFFCEFF4700BA0013013A
:103A9000450148011201A5001F00A1FF39FFF6FEF4
:103AA000F4FE2FFF8DFFFBFF6A00B800D000BC00C2
:103AB0008F0052000600BCFF87FF6FFF73FF8EFF71
:103AC000B9FFE5FF08001D002200230033004D0070
:103AD00053003F0027000F00EBFFC3FFA3FF86FF4B
:103AE00075FF8EFFD0FF1B0059008800A1009C00CD
:103AF0007C0047000200B2FF65FF30FF28FF56FF41
:103B0000A4FFF3FF3B00750092008B006D004500A1
:103B10001700E3FFA6FF66FF31FF0EFF07FF2FFF31
:103B200086FFF9FF6700B800DD00D10094002C008B
:103B3000AFFF3AFFECFED7FEFCFE51FFC8FF44008A
:103B4000A700DF00EA00C50076000F00A6FF4BFFCC
:103B50000CFFF9FE16FF55FFA7FF00004F008D0078
:103B6000B800C800B1006F001000ACFF57FF1AFF8B
:103B700001FF19FF5DFFBDFF1E0066008D0096006E
:103B80007B0044000E00DCFFA5FF78FF6DFF81FF86
:103B9000A2FFC9FFFBFF3A0073009800A900A7002D
:103BA00087004700F9FFB4FF80FF57FF3FFF49FF41
:103BB00081FFDBFF3A008700BE00DB00D400AD00D0
:103BC0006F001900B3FF60FF41FF59FF9BFFF8FF33
:103BD0005F00B900ED00EB00B90067000700B0FF1F
:103BE0007BFF6EFF82FFA8FFD8FF13004F00780015
:103BF00084007C006D005D004A003A0035002C0016
:103C00000B00DFFFC8FFCCFFDEFFFDFF31007400BB
:103C1000A900BE00AF00820041000200D4FFB7FF40
:103C2000ACFFBDFFE9FF27007000B700E500F00022
:103C3000DD00B40077002B00DEFF9FFF7DFF7BFFE0
:103C400092FFB8FFF0FF38007F00B400C800B20058
:103C500078003100EDFFAFFF7AFF5BFF63FF91FF5C
:103C6000D6FF200064009900B600B70098005A0003
:103C70000F00D5FFB6FFABFFAEFFBEFFDAFF0A00B5
:103C80004B008500A800B200A600850056001C006D
:103C9000DDFFA9FF8BFF89FFAAFFE9FF3200770054
:103CA000AB00BD00A9007E004100F6FFA8FF6AFF3F
:103CB0004BFF56FF7EFFB0FFE2FF130043006E0094
:103CC000880084006D0054003A001700EDFFC7FF24
:103CD000B1FFADFFBCFFDEFF0F0043007200950097
:103CE000A5009800710039000100D2FFB5FFACFFBC
:103CF000B4FFD6FF11004B006A00740072005E0032
:103D00003E00250016000A0007000E0014000900FE
:103D1000EFFFD8FFD2FFDDFFF4FF16004400730071
:103D2000910098008A0067003400FBFFC3FF99FFF1
:103D300094FFBCFF02005600A400CF00CB00A300FC
:103D40005A00F9FF9AFF5AFF47FF61FFA4FFFDFFEA
:103D500056009B00C500C80095004000ECFFA5FF81
:103D600071FF59FF63FF8CFFD0FF1F0061008C00C3
:103D70009F00990077003A00ECFF9DFF5BFF3AFF40
:103D80004BFF88FFD5FF210069009F00B700AB0003
:103D90007D003C00F6FFB5FF7FFF62FF61FF79FF0A
:103DA000ABFFEEFF34007700B400D700D000A700CF
:103DB00064000C00ABFF52FF12FF00FF26FF76FFEE
:103DC000DBFF43009E00D500DF00BD007800180037
:103DD000AEFF54FF20FF14FF21FF49FF91FFE7FFD3
:103DE00034006D008800790048000A00C7FF82FF98
:103DF0004AFF35FF49FF7AFFB5FFEBFF18003A0095
:103E00004C00490037001B00EFFFB4FF83FF67FF42
:103E10005BFF63FF84FFB7FFECFF1A003A004A0024
:103E200047002E000600DDFFB2FF84FF5BFF45FF69
:103E30004BFF6EFF9EFFC8FFECFF0700110009005B
:103E4000F9FFE7FFD3FFB9FF9EFF8DFF88FF85FFD6
:103E500081FF7EFF83FF93FFAEFFCCFFECFF0900E5
:103E600016000D00F4FFCCFF97FF66FF4BFF4EFFDF
:103E70006AFF99FFD3FF11004400630066004A0007
:103E80001300CEFF85FF46FF1FFF19FF3CFF86FF93
:103E9000E5FF44009200BC00B50084003800E3FF59
:103EA00092FF4DFF1EFF0FFF26FF61FFB1FF0600CF
:103EB00057009700B600AD0087004D000100AFFF2E
:103EC0006EFF48FF3DFF52FF82FFC8FF1B006500E9
:103ED00092009B0088005B001E00E4FFB7FF96FF86
:103EE00085FF85FF95FFB0FFD2FFFDFF2C0053003B
:103EF00066006400530034000800D5FFA9FF8DFF61
:103F000080FF82FF9AFFC8FFFBFF28004A005B008A
:103F1000580040001400E0FFB7FFA0FF97FFA0FF8C
:103F2000C0FFF3FF2C005E0081008E008400600063
:103F30002900EAFFAFFF86FF75FF86FFBBFFFCFF8E
:103F400030005300660064004D002A00FEFFCDFFE4
:103F5000A5FF94FF9EFFBEFFEBFF200051006D0008
:103F60006D0055002A00F1FFB9FF90FF84FF96FF16
:103F7000C1FFF9FF30005700680069005B00460090
:103F80002F001A000700F8FFEDFFE5FFE2FFE2FF58
:103F9000E5FFEFFF00001400260031003300300081
:103FA00029001E0011000600FEFFFFFF0A00150099
:103FB00018001B001F001B000E0008000B00100063
:103FC00014001C00230027002A0029001F000B00FA
:103FD000F4FFE4FFE5FFF4FF0B00220030003700A0
:103FE0003D003C0028000A00F1FFE6FFE8FFF1FF7A
:103FF000FBFF010006000D0011001200120010006E
:104000000700FAFFF1FFEDFFEBFFEDFFFCFF1500EE
:104010002F004000430039001D00F7FFD5FFC2FF0D
:10402000BFFFCDFFEFFF1C0046006500710063007D
:1040300042001A00F4FFD8FFCCFFD4FFEFFF1400BA
:1040400034004E0068007A007800640044001E00CE
:10405000F7FFDAFFC6FFB9FFB8FFC4FFDDFF0400BA
:1040600033005E007C008500720044000B00D8FF26
:10407000B1FF9BFF9DFFAFFFC7FFE5FF07002500D6
:1040800044005D0066005E004B002900FFFFDCFF7E
:10409000C2FFB3FFB5FFC8FFEAFF1A004A006B007A
:1040A0007F008A00850065003400FDFFD0FFB4FF6B
:1040B000A9FFAEFFC0FFDCFF07003E006C008100DF
:1040C0008100730059003000FCFFC8FFA0FF85FF8E
:1040D0007DFF8CFFAEFFDBFF12004D008300A600CA
:1040E000A900870052001900D9FF9CFF7BFF7FFFCA
:1040F000A4FFDFFF21005D008A00A500A600840068
:104100004B000C00D2FFA5FF94FFA2FFC5FFF3FFF9
:10411000210046005F006B006700580045002F003B
:1041200018000200EDFFDDFFDAFFE5FFFBFF1600E0
:104130002C0039004000490050005000460031007A
:104140001F00180015000D0009000D0012001800D6
:1041500026003B0052006000650064005B004900DF
:104160002F000E00EFFFE0FFE2FFEAFFF3FF010088
:104170001B003F005B005F0051003E002300010078
:10418000E3FFD1FFCAFFCFFFDCFFF3FF16003B00C8
:1041900054005E00620059003F001A00F6FFDAFF8B
:1041A000CEFFD4FFE7FFFFFF1C0040006500810049
:1041B00087007000490023000100DBFFBDFFB4FF52
:1041C000BEFFDFFF16004A0067007400760068003B
:1041D00048001B00E3FFB3FFA1FFABFFC5FFE7FFF4
:1041E000090025003B0043003A002F00270016007D
:1041F0000000F4FFEAFFD6FFC7FFC8FFCDFFD2FFE4
:10420000E0FFF5FF10002F0042003D002B001800DA
:10421000FDFFD8FFB5FFA7FFB0FFB6FFACFFB0FFB3
:10422000DEFF220050005500440032001800DDFF80
:1042300092FF61FF5AFF6CFF8CFFB2FFDAFF0800AC
:104240003800580058003A000600CBFF9DFF81FF60
:1042500069FF4FFF48FF63FF94FFCFFF0700330064
:104260004C00520046002C000600D3FF9DFF7BFF50
:1042700076FF7FFF8CFF9CFFB8FFE2FF0F00250059
:104280001B000600F6FFE6FFD1FFBAFFA2FF8EFF7C
:1042900088FF90FF9BFFAEFFC9FFD7FFD3FFD4FF7E
:1042A000E7FFFBFFFEFFE8FFCFFFC7FFC3FFB0FF45
:1042B00099FF8AFF86FF9BFFCDFFFCFF12001F00C6
:1042C00030003C0035001100DDFFB1FF98FF92FF88
:1042D000A2FFC5FFF1FF1800340047004F004A005D
:1042E00036001B00FEFFE2FFD1FFCCFFC5FFBFFF82
:1042F000CDFFF0FF150030003A002B001100020046
:10430000FBFFE7FFCBFFB8FFB7FFBFFFC7FFD2FF41
:10431000E5FFFFFF13001D001A000700EDFFD7FFA8
:10432000C6FFB6FFB0FFBDFFD4FFE8FFF7FF0600F2
:10433000100012000800EBFFC8FFB5FFB6FFB8FF82
:10434000B9FFC9FFE7FF0100080007000A000F00DE
:104350000C00F8FFD7FFC0FFC5FFD7FFDDFFD9FF77
:10436000D9FFE0FFE9FFF2FFF4FFEBFFD9FFC6FF43
:10437000B8FFB4FFB7FFC2FFCFFFDBFFE6FFF3FFDD
:10438000FDFFFFFFF7FFE8FFDEFFDDFFDBFFD1FFF3
:10439000CAFFCEFFDEFFEFFFFBFF0500160028007F
:1043A000320034002A001B0017001A001500070015
:1043B000FDFFF7FFF4FFF3FFF9FF060014002300F1
:1043C0003600460045002F0016000400FAFFF8FFF3
:1043D000F5FFF3FFFDFF1A003F0053004C003700CC
:1043E00027001D0014000700FDFF0200150021003A
:1043F0002400310044004D004C00440035002800EA
:104400001E0013000F00180029003D004D0052004F
:1044100050004E00470035001D000D0011001D002A
:104420001E0012000D001D0040004E001B00C1FFC9
:1044300098FFF3FFB700F400D6FF57FE6EFE43006F
:10444000D2017C01A4FF05FE24FEF2FFB801BE01EB
:10445000F1FFFFFDC6FD80FF7F01D701390033FE6C
:10446000C9FD77FFA1013102B100A7FE10FE7EFF5A
:10447000820105025D0019FE8CFD5EFFC401610230
:10448000A60068FE04FEF6FF3D0265022600BFFDA1
:10449000A8FDEDFF1702CD0166FF8AFD56FEFA006A
:1044A0008E025301B9FEB9FD68FFBF01F301AFFFF2
:1044B00080FDE9FD78003302160185FEA8FDA1FF0D
:1044C0002C025302EAFFCAFD6FFE00015702CC0026
:1044D00029FE8CFDB7FF250206029EFFE6FDF3FED6
:1044E0007A016902A80057FE28FE2300CB0136019D
:1044F00043FF6AFEA8FF5E017001EFFFDBFE90FF45
:1045000020018C014D00F2FE1CFF72002C016300A3
:1045100023FF02FF1B000601B600C6FF8EFF5200FC
:10452000F000800094FF69FF2000A40031005CFFD0
:1045300045FF2200FD00E20005007AFFE8FFAF0022
:10454000C000F8FF37FF36FFC4FF3C004F002900D2
:104550000300EFFF03004F00AF00C400480087FFD7
:104560004AFFE3FF910069008BFF06FF8DFFA20069
:1045700020019400CFFFCEFF7400C500430086FFEA
:1045800069FFE9FF43000900ACFFDCFF8500D800AC
:104590006C00D7FFDFFF66009600010038FF26FFA2
:1045A000DEFF7B005700DEFFD8FF4F009A00570068
:1045B000E9FFD5FF06000600BDFF8FFFC8FF2500FD
:1045C0002A00D0FF9CFFEAFF6F0093003B00DCFF56
:1045D000E2FF23002300C7FF89FFCFFF4A005900F5
:1045E000F0FFADFFF8FF7B009F004A00DBFFACFF50
:1045F000CBFF0F00400041001100B7FF70FF9AFF92
:104600003E00D100AD00DFFF43FF96FF8400F800BD
:104610006D0082FF36FFC5FF6E006D00EDFFB1FF3C
:10462000F7FF53006B006100730085004500C6FF73
:1046300098FF0B009F008700B4FF12FF79FF9300E3
:104640002B0194007FFF37FF1A001F010F01F7FFB6
:104650000EFF3EFF3100CD00720093FF29FFADFF3A
:10466000A0000C017D0084FF21FFB1FF84009B00AE
:10467000C9FFF5FE1FFF30000101B000B3FF46FF88
:10468000E9FFC300BA00CAFF0FFF64FF5100A60094
:10469000090060FF8DFF5300C3006B00C7FF99FF47
:1046A000F4FF3D000B00B0FFB1FFFCFF1500DDFF84
:1046B000C1FF180089007400D0FF4FFF8BFF350049
:1046C0006B00DAFF2CFF36FFF3FF93007000CBFF87
:1046D0006BFFB1FF33004D00E9FF86FF89FFD2FF7A
:1046E000FCFFEBFFDAFFEFFF0600F9FFE3FFEFFF50
:1046F00014002000F6FFBEFFBEFFF8FF1B00F6FF10
:10470000BBFFBDFF0200470049001500F7FF150081
:104710003D002F00FAFFDBFFD9FFCFFFB5FFBFFF42
:10472000040045003300DFFFB8FFFDFF65006800AF
:10473000EDFF79FF91FF11004F00FDFF82FF74FF35
:10474000E1FF48003B00DCFFB1FFEFFF380026002F
:10475000DAFFBAFFD8FFE8FFC2FF9CFFC2FF1600D6
:104760002C00DFFF93FFB9FF2D005C00040090FFD9
:104770008DFFF5FF3B0007009EFF87FFE0FF340041
:104780001E00D7FFDDFF3B0076003D00D6FFC4FFD3
:104790001B005E002400A5FF73FFC6FF3C0058000D
:1047A0001D00EBFFF9FF1D0025001A001200FFFF9E
:1047B000CFFFA2FFB2FF04004D003200CAFF94FFFA
:1047C000E2FF62007C0005007EFF85FF0E006B00AB
:1047D00028009DFF7BFFF3FF78007400FDFFA6FF1C
:1047E000CDFF3F0072002100A3FF85FFDFFF4600E1
:1047F0005000FFFFBDFFDCFF3A006F004500E8FFFF
:10480000B2FFC9FFFFFF1200FBFFDDFFD4FFE4FF93
:1048100002001900220020001100F5FFE1FFF3FF64
:104820001F002A00F8FFBAFFB4FFF5FF40004C005C
:104830001300D5FFCFFF040039003300F8FFC3FF9A
:10484000BDFFDCFF0100180019000600EAFFDFFFD2
:10485000F1FF10001D000900D6FFAAFFB5FFF3FF0E
:104860002A001F00DBFFA9FFCCFF2C006B004600D5
:10487000E3FFA8FFCAFF19003A000700B7FFA2FF35
:10488000DFFF22002400F7FFE1FFF8FF15000E0014
:10489000E5FFCCFFDBFFF0FFE6FFCAFFC9FFF0FF3B
:1048A00019001D000200EAFFF0FF0C001F000E00BF
:1048B000E9FFD6FFE0FFFDFF1D0028001200F3FF17
:1048C000F3FF1F00500051001600D5FFD1FF030079
:1048D00029000F00D2FFBFFFF1FF2C002E000700C0
:1048E000F7FF160039002C00F7FFD4FFE3FF0300A9
:1048F0000300E5FFD3FFE7FF0C001B0013001200CD
:1049000023002300FBFFD1FFD5FF0400210003009B
:10491000CCFFC8FF100054003E00E5FFB5FFE5FFE7
:1049200032003900E4FF8FFF9FFF0800580041006C
:10493000ECFFC0FFEEFF43005F002700DDFFCCFF70
:10494000F5FF1C001500F3FFDFFFECFF060016006B
:1049500013000A00040007000F0011000300F0FF1D
:10496000E4FFE0FFE2FFEDFFFFFF0C000800F7FFB0
:10497000EDFFFEFF1A001B00EEFFB0FF99FFC9FF1D
:1049800018003500FCFFB0FFB2FF12006E005E00A1
:10499000F2FF9DFFB6FF190055002C00D4FFAFFFBA
:1049A000DBFF1D003700250014001A00230014004F
:1049B000FEFF0400200029000D00EEFFF9FF250096
:1049C0004300360016001000280037001A00E8FFE8
:1049D000D9FFFCFF21001B00F7FFECFF10003C009B
:1049E0003F001B000100130033002F000000D7FF21
:1049F000E0FF120032001200D0FFBDFFF8FF4900B7
:104A00005C001D00CBFFBEFF060052004B00F6FF0E
:104A1000AFFFC5FF2A00790063000800D7FF0A0036
:104A20006B0092005200E7FFB6FFE4FF3000470042
:104A30001F00EFFFE9FF0C003A00500045002C007A
:104A40001B0019002200280020000600E9FFDBFF00
:104A5000E7FF020010000B00050010001F001F0000
:104A60000900EDFFE2FFECFFF3FFE9FFE4FF0000C8
:104A70002F0044002B000100F9FF220052004F00DC
:104A80000A00BEFFB7FFF9FF37002E00ECFFBFFFA3
:104A9000E1FF370067004300F5FFD0FFF0FF24007F
:104AA0002500F2FFC6FFCAFFEDFF09000A00FDFF67
:104AB000FBFF06000700F4FFE3FFECFF0300080024
:104AC000F6FFE9FFFAFF1900250018000E00160096
:104AD0001D000D00F0FFE3FFF1FF0100F6FFD9FF1D
:104AE000D3FFF4FF1C0020000100E8FFF9FF2000C5
:104AF00028000000D5FFD8FFFDFF11000400F2FFE1
:104B0000FAFF160022000F00F9FF030021002B001E
:104B10001000EFFFF0FF100025001200EAFFD8FFA1
:104B2000EBFF080015001400140014000C00FDFF3A
:104B3000F5FFF8FF03000600F8FFE7FFE7FFFAFFC5
:104B40000E0011000100F2FFF4FF01000E0016003C
:104B50001200FDFFE8FFEDFF1200360030000400F8
:104B6000DEFFE6FF17003F003100FBFFD7FFE6FF47
:104B7000120025000500D4FFC7FFEBFF1B00290032
:104B80001200F8FFF9FF110024001B00FAFFD9FF03
:104B9000CFFFDFFFF6FFFCFFEEFFDFFFE4FF0200C9
:104BA00021002000F9FFD7FFDDFF00001000F6FF15
:104BB000CCFFBEFFDFFF110026001000EDFFE8FF75
:104BC000080027002000F7FFD4FFD5FFF1FF0C00FD
:104BD0000B00F4FFE1FFEEFF1C0048004800180046
:104BE000E7FFE7FF170041003200F1FFBBFFC5FF01
:104BF000020034002B00F3FFCEFFE8FF22003A0052
:104C00001A00E4FFCAFFDFFF0000FCFFDAFFC8FF65
:104C1000E0FF05001000FAFFE8FFF7FF16001D0097
:104C20000200E3FFE5FF01000800EBFFD1FFE5FF15
:104C300018002E001100F0FF05003B004D001D0084
:104C4000DCFFD2FF030028000500B9FFA3FFE4FF4B
:104C5000390044000800D7FFEFFF29003000F1FFC2
:104C6000AFFFACFFD9FFFBFFF1FFD4FFCFFFEEFF9B
:104C7000100015000400F4FFF3FFF6FFEBFFD8FF70
:104C8000D5FFE1FFE6FFDFFFDFFFF4FF17002B009A
:104C900024001000040002000100F5FFE4FFDBFF28
:104CA000E4FFF7FF0200FFFFFBFF010011001A0005
:104CB0001200FFFFF2FFF3FFFDFFFDFFEDFFD8FF46
:104CC000D4FFE4FFFCFF08000100F3FFF2FF09003E
:104CD000230022000400E5FFE1FFF5FF0400F8FFD8
:104CE000DCFFD4FFF3FF2200360023000A0005009A
:104CF000100017000D00FAFFF1FFF8FF010000009F
:104D0000FEFF0E0029002E001000F0FFF1FF090049
:104D10001400FCFFD1FFBAFFCCFFF4FF0C0005002C
:104D2000F4FFF2FF04001E0028001700F5FFDAFF71
:104D3000D4FFE3FFFDFF0D000800F8FFF1FFFBFFCC
:104D40000F0015000300EBFFE1FFE7FFF6FF0A008D
:104D50001600120009000B0019002600260015009D
:104D6000FDFFF5FF040013000F00FCFFECFFE8FF60
:104D7000F2FF00000500FFFFFAFFFAFF0300120038
:104D80001D001B000800EFFFEAFF01001A001C00D5
:104D90000A00FCFF05001A001F000E00FCFFF9FFCF
:104DA00002000A000700FBFFF3FFF7FF05001200F7
:104DB0001600180017000F0005000200FCFFECFFB2
:104DC000D4FFC7FFD7FFFAFF0F000600F6FFF9FF79
:104DD000110022001500F9FFEBFFF5FF08000E009F
:104DE0000000EBFFE8FFF7FF0100FDFFF7FFFAFF10
:104DF00006000C000700FDFFFCFF08001500140072
:104E00000600F5FFEFFFFDFF170026001900010067
:104E1000F5FFFEFF0F000D00F1FFD3FFD0FFEBFF0A
:104E20000C001300F9FFE1FFEBFF0B001800FFFF80
:104E3000D7FFC8FFE7FF13001F000600E8FFE8FFE9
:104E4000010012000500EDFFEAFFFAFF0800020072
:104E5000F1FFEBFFF4FFF9FFEBFFDCFFE2FFF7FFF1
:104E60000100F6FFEDFFFCFF11001200FBFFE6FF63
:104E7000E9FF01000A00EEFFCEFFD4FFF8FF0C00AF
:104E8000F6FFD3FFCCFFE8FF04000100E5FFD2FFEF
:104E9000D5FFE2FFE6FFE2FFE8FFF6FFF8FFE6FFDF
:104EA000D7FFE3FF00000900EDFFC8FFC4FFE4FFE8
:104EB0000000F8FFDCFFCFFFE3FF01000600ECFF7E
:104EC000D5FFD9FFF1FF0000F9FFE8FFDEFFE2FFA9
:104ED000EAFFF1FFEEFFE2FFD9FFDCFFEAFFF4FF9C
:104EE000F3FFE8FFDFFFDFFFE3FFE4FFE2FFE0FFA8
:104EF000E1FFE5FFEBFFF3FFFDFF07000A000B00FA
:104F00000F00120011000B0006000200000000005C
:104F10000000000000000000000000000000000091
:104F20000000000000000000000000000000000081
:104F30000000000000000000000000000000000071
:104F40000000000000000000000000000000000061
:104F50000000000000000000000000000000000051
:104F60000000000000000000000000000000000041
:104F70000000000000000000000000000000000031
:104F80000000000000000000000000000000000021
:104F90000000000000000000000000000000000011
:104FA0000000000000000000000000000000000001
:104FB00000000000000000000000000000000000F1
:104FC00000000000000000000000000000000000E1
:104FD00000000000000000000000000000000000D1
:104FE00000000000000000000000000000000000C1
:104FF00000000000000000000000000000000000B1
:1050000000000000000000000000000000000000A0
:105010000000000000000000000000000000000090
:105020000000000000000000000000000000000080
:105030000000000000000000000000000000000070
:105040000000000000000000000000000000000060
:10505000B9110000BEFF3F00C0FF4100BDFF44008A
:10506000BBFF4600B7FF4A00B8FF4800B5FF4F003E
:10507000B0FF4D00B6FF4600B4FF5300A6FF5B0033
:10508000B0FF4200B3FF62008BFF870084FF4D003A
:10509000D6FF2100E7FF32008CFFA00054FFAE00D6
:1050A00030FFDB0043FF8E00A8FF4D00B9FF070073
:1050B00017004B0017FF2501B4FE6001FBFEA9009D
:1050C00062FFBF00CAFEBD014BFE5D013BFF4F000A
:1050D00089FFAA0065FF220115FEDC01CFFE250134
:1050E000C5FE8F0165FD3D031AFD030305FC450464
:1050F000D9FB51052DF87F0B0AE9E912900777D704
:105100008E3D2DB54235D1FD20CB5142E8BEA113D5
:10511000641FD9C6F72D3EE914EA9E2F3FD09BFDB0
:10512000462394C1182AFD12AAC3793808DFA8E7DC
:105130003A4974B99C17BF1565BAE346DCEBA4D8AD
:105140005E3E8CBF0A13DE2D0EBA4C2E57F50DD0E5
:105150006C4D5FD141F6642E41B7E82F3B1172C010
:10516000BA3F03D5F1F05441F1BCD715E6134EBE5A
:10517000E343CDEC6FDA353C6CC12511082F2BB71A
:10518000273098F3AFD03F4DB7D003F7652DB4B6B5
:10519000A0301E10F0C35F3C46D593EE19446BBEA1
:1051A0002F1483155BBCD145E3F1F9D5883E2AC0A5
:1051B0004912DD305CB76231ACF33BD2254F24CFCE
:1051C000AAF8342F80B75030E90F5BC1C73FB6D87B
:1051D0000AF0FE44FDBBAA18E6147ABEA74683EA8D
:1051E00039DBC33EAEC02013A92D6EB74C3235F566
:1051F000C4D0554C59CD53F8083058B64131200D24
:105200009FC13A402BD618F024446DBBC618C11379
:10521000A4BDF344D7EA37DB1A3D39C0C7125C2B73
:10522000DDB8C8303BF434D2B94B0FD0BBF89E2E5A
:105230009CB8B72F560FD5C4543E02D7D2F0A74121
:10524000FDBEE5182813F1BF9D44D6EC32DCDF3CEF
:1052500078C184124F2E6BB9223175F469D2A94DF1
:10526000D4D068F9A42DDEB72032FD0E20C5493E0A
:10527000A2D502F2044400BD1319EF123EBEB3479B
:105280002EEC37DAE03D0EBF4A142B2E31B86332D4
:1052900037F372D3324E26CFCAFA802D5AB7C231B5
:1052A0004A0E30C4613FBBD583F05C4379BCFA1829
:1052B00087143FBDE54685EDC0D9363F95C0241221
:1052C0001D307CB8B631A5F462D1654E31D097F966
:1052D000A22EAAB62232840F9AC3543FDCD5B9F06D
:1052E000374596BC7218EC13EEBDF147B9ECC0D946
:1052F000243F24BF21149A2F34B6B53286F482D1CC
:105300002A4F50CE62F8142F68B7B031ED0EB8C2F4
:10531000F63E88D677F06A44F7BB52189F14A9BDB1
:105320008E4714EDB7DAE93E4EC0D912262E38B8B2
:105330008331BFF4B0D2874DF0CF20F9EF2EFBB709
:105340005232CA0E55C3D73F3BD6C4F1A045E6BB87
:10535000A219D9144EBE1948CFEC65DAE13EB5C0AA
:10536000C413E72D60B83F3222F419D3154E3CCE5A
:10537000CCF9043054B60433A10E3DC26C414AD678
:105380006CF08544ACBCC61947141DBE394459EABB
:1053900060DB203EA6C01214442DB1B73633CBF3E8
:1053A0001FD1524E13CF11F900305BB6EA31E10E36
:1053B000A8C30F40F5D48DF01D4323BB9C190C14DA
:1053C000FEBD0E48D3EC79DA353F65C0F013212FCE
:1053D000F9B7C8328DF462D38F4F7ECFFDF9852F98
:1053E0003DB70232C50EE4C25F3FEDD649F19C43A2
:1053F000E8BB13190C13A0BF3848B1EA38DCBF3D35
:10540000C7BF8E155B2D5EB8093234F3E3D3544D1C
:10541000AACF3CFA002D75B80432B90C78C47B3D94
:1054200092D50BF3AA435FBD7A18CD11A2BEF74601
:10543000B7EB70DBFC3C26BFAA14F52D22B8C332B3
:1054400062F30ED3EC4EFDCEDFF9E12E72B70333DB
:10545000850E7EC3FB3F7AD665F2E545C7BCBF1813
:105460000714FEBE3E487BEC79DB863CE4BF1E148D
:105470003A2C0CB982319BF201D5224D74CFF4FA4B
:105480004E2D5FB8F232170E8FC4DA3EA7D545F223
:105490004244A7BD691942120EBFEA4617ECC0DCB0
:1054A0001B3CEDBF6F142F2D37BA8B3184F20AD419
:1054B000854DB9CFB3FAF22C07B8EA33330F5BC48A
:1054C000CA3E59D51BF2884537BEE517431348BF7E
:1054D0008B463DED98DB6D3BA1C0F714FA2C28B943
:1054E000F6311EF21BD4CA4E3FCECAF9E62D06B7DE
:1054F0003233650FBDC3093FA8D5CEF13444B1BDE9
:10550000E819931201BF984682EB04DC5B3DD9BFDA
:10551000CD13FC2DD5B8CE312EF324D3FD4DE5CEE1
:1055200001FB642C4AB73D33ED0D7DC4223F83D48B
:10553000B7F14B44D2BCC3194913FABD154899ECD5
:10554000FADBB83D98BFB313782E80B9863141F3AA
:10555000A2D3BC4DB0D0CAFA4C2C83B72E335D0E0B
:1055600050C5E33FDDD35DF2FA447EBC651AE1121B
:10557000FABD47483FEC34DD733C47BF74146B2BD6
:1055800041BA9D320EF1E1D4554D2BCE5DFB492C35
:10559000B5B65034BA0EFFC3203FAED328F2224531
:1055A000A2BCAE18591265BED84874EC55DB1B3C42
:1055B000DFBFF214292E4EB9CD3114F28BD4B14C89
:1055C00012CED5FABA2C46B820341C0D5EC4F13F79
:1055D00049D411F3B44498BCEF1A881215BEB147F0
:1055E000A7EB41DD513D15C0EE140C2D6CB9AE3268
:1055F0008FF10AD5DE4E82CEF0FBF52C9FB65E35DC
:10560000140E93C4DB3F29D318F485447EBD891A58
:105610007C1064BF5D4796EA12DEE73B56BFFE157D
:10562000E32B51B9FF3328F1CBD4CA4DB0CD6AFC7E
:10563000132DE2B60434480C14C53240A1D261F3F4
:105640008743CCBB211C3B1173BDF548F1E9C7DD95
:10565000BA3D07BE1E167A2C03BA9E33FEEF0BD559
:10566000B44CEBCE42FD402B1EB77F33EE0BA4C6ED
:10567000493FE9D2ABF4AF427FBD491CE10FADBF5A
:10568000DD48ADEA81DECE3DE9BD8C16512E9DB8D8
:105690008A340BF1EED3AC4ED0CE86FC672C67B7C4
:1056A0003934CB0CD7C56A40F8D2BDF35C4426BB75
:1056B000701C5C11C3BDFB47DCE94BDD123D7DBFB7
:1056C0005D14B82B01BA7632DEF13DD4204BADCE5D
:1056D000E1FBE22B57B8D533770BE9C5AE3EB9D223
:1056E000D4F4324473BB681C4A1066BEF949AFE972
:1056F0008DDD283D4DBE2E17932CA9B99433BBF0F8
:10570000DDD5884E35CD2FFD802BAEB61735580A26
:10571000B0C4793F49D3CAF4A444F6BB3A1BCC10B9
:1057200095BF4949BBE9CDDE083C71BEF316572948
:105730001AB92B3377F045D6F34DC0CCF7FB172CB5
:10574000C5B64035E50B23C4973F26D348F41F4424
:10575000F3BBF81AB11047BF1F49E8E999DEAC3C2A
:105760001EBE3717382A3AB98D330AF01BD6604E61
:105770003FCE96FD232B04B88035E00B49C7F33E9E
:10578000BCD197F5DE4254BC9D1C120F19BF8C4A48
:1057900037E993DE693C12BD0E18C72C6FB9F3329E
:1057A000A2EF76D5F74DADCD94FC442A31B78D35B7
:1057B0001A0B77C5B13EDFD10AF5B04334BB251BC8
:1057C0004B0F92BEB14903E9AFDD2B3C06BDCB17B1
:1057D000B62B65B995333BEFBAD50D4E5DCDEAFDDD
:1057E000982AC8B6D935C50A3EC6174064D175F5A2
:1057F0008E4309BCE11C5710EABFA84920EA22DF0A
:10580000043D29BE4518FB2B1DBA1135BDEFD4D57B
:105810009D4EA0CD52FECA2B39B72D35E80BB0C630
:10582000274031D292F4924350BCB51D7E10D9BEB0
:10583000E748AAE9FADE313D1CBE0E16E22A43BA59
:1058400074338BF00DD5724C05CDD6FCB12A25B73B
:105850006F34110B85C5B73EE5D1B5F46E43B0BBCF
:105860001E1C5B0FB2BE334969E9CEDDC73CA2BD49
:105870008415002BEBB9E73242F0C3D58B4B91CDA9
:1058800098FE072A51B87735DA0AB5C77F3FCCD1E1
:1058900002F5D44218BDBC1C8C0F9CBF7D484EEA5B
:1058A000B4DFD93B12BE3217BE2A15BBBC338DEF15
:1058B00011D7384D20CE64FEDD298FB86A35AC0A89
:1058C00095C70E3EE5D269F6064231BDB91B800E82
:1058D0008CC14648D3E887DF3D3B7BBE4C19342A58
:1058E000BEB93D3421EFEED6774D0DCC0DFD8E2A9D
:1058F00033B80436CE0A18C6733E3AD22CF6134398
:10590000D8BBC61BFE0EBABF1849B3E913DEB73BBE
:10591000FEBD82170E2B00BA8733A9EE87D6584DED
:105920007ECC05FE992A1FB71E36DD09E8C56D3FFE
:105930009AD1B5F63D42E6BA6B1D2D0EB3C09F4914
:105940002DE840DFA53B9BBD5B1869296EBA763315
:105950004AEE1AD8094D39CD1DFFFE28FFB79736FC
:10596000AF0967C7903F12D151F78E4278BB7E1DB9
:10597000260ECAC0084A86E896DFBF3B47BE3E19DE
:105980001E2A0FBAB2345BEEE3D7264EE3CB18FFE4
:10599000D22959B78C36730856C7D93F77D1B5F697
:1059A000674257BC051DFD0D17C17846C4E6BAE035
:1059B000A93A6CBD1C196429E6B94834A7ED7AD61A
:1059C000604DDCCB70FE352919B63836D40914C7C2
:1059D000283E27D099F6264205BCDC1C720D3EBF3E
:1059E0003E4964E8B0DE693B55BD8418842AE9B9B4
:1059F0008F3360EEC0D7A04DBFCC80FE4A2AA3B63D
:105A00001337AF0A66C6034098D146F6CB42D0BBE7
:105A1000721D980E21C0A949C4E8A1DF273CABBD87
:105A20004B19332A3DBA90356DEE8ED63F4E82CD5E
:105A300034FEF929EDB7CB34460914C8CA3E54D117
:105A4000F5F6C5414DBC991D0C0E42C1E348FDE67B
:105A500023E09C3BE8BD62196429B4B9A333F0ED9F
:105A6000D6D7F64BC4CBFEFEC9282BB8FA35CF07E4
:105A70007FC7913EBFD045F7D14012BB831D700D4B
:105A80007FC0C04884E6B3DF993BE1BC9F19502931
:105A900036B91F3546ED3BD8464D28CAD4FF8A2873
:105AA000E2B7F437D907C4C7043F05D190F9AB4139
:105AB00017BB921E440D37C1174BFFE55FE0AC3BAF
:105AC000F5BCDD19D82786B9533407EED9D8F14C87
:105AD000F6CB86FF3E2974B8CC378E0810C7344009
:105AE00012D19BF7774294BBC11D7D0E2EC1494850
:105AF0002FE7C0E0C73AA6BE111ADB2888BA4B359B
:105B00003CED76D8424EE3CA79007129F8B6A03848
:105B1000670829C867401ED0EAF89F4155BBF71EA9
:105B20003F0D66C1DD49E2E590E0253B6CBD921A70
:105B30004A2823BAC3344CED1ED97D4C93CBABFF1E
:105B40007E283DB85836DF0701C8EA3EB2D011F8CA
:105B5000DD3FB3BB6D1EB70C88C2474809E638E18C
:105B6000683A8BBE431AF92774BA303434ED14D92D
:105B70007B4C47CB3B000128D6B85137080893C867
:105B80003F3FB8D0C5F817416CBBE01E050D3AC2C7
:105B9000CC4934E6ADE1D13AB2BEDD1AC927BCBA70
:105BA000AE340FEE76DA424DF3CAC4000029EEB8E7
:105BB0000A38A807F3C7AF3F18D1C4F81F414EBB3E
:105BC000281E310D8EC1BD49ECE6F3E0343B3FBDEC
:105BD000231AA327F5BADC34A8EC5CD9314BA2CA4E
:105BE00097008927B5B87536D8068BC7CF3EA9D0A0
:105BF00061F88A4038BB711DBA0C9FC1524860E6FB
:105C000088E0AD39E6BDA919582732BB7A3470EC6B
:105C1000FDD9E74BB9CAB60157274EB87238B70657
:105C20004FC9953FEFCFEAF8D940F6BBED1E870C80
:105C300034C28048FDE634E2813AEEBD3A1AD926F4
:105C4000ADBBFB3449ED0DDA414C82CB9A01D32731
:105C5000FFB8F436FD05B1C8BE3EE7CF52F9963F16
:105C6000D0BA651EC30BE5C1FB48AFE558E11B3A4E
:105C70001DBD381A5A266ABAD83499EB83D9234CF9
:105C8000EACA98002B2715B8F1362606B3C9D13DCC
:105C900073CF2AFA383EB9BA9D1F620A2CC3014A53
:105CA0000CE515E1F33A17BCEB1BE3278FBA9A34E6
:105CB0003DEC59D9154DFDCA01027D27A3B7B33775
:105CC000E00623C9BF3E81CFB4F9274083BCB91E8B
:105CD000670CC8C186491AE6F7E2903925BDCB1B8F
:105CE000F52683BBC735BDEA57DA224D5CCAE90207
:105CF0001627DBB7AB37D8049AC9863EE3D0C2F982
:105D0000A440CFBBBB1E960B95C4C8487AE56FE292
:105D1000CB397BBD921B8D274DBBCF3420EC03DAF2
:105D2000D84C4CCA0003CA25DDB88537C206A5C9C0
:105D3000E74044CD58FAC43FB8BBBF1F9D0BE6C037
:105D4000274A88E40CE42A3840BF8A191A2744BA43
:105D50009034BEEB36DAA74B01CC2300792604B78A
:105D6000AB381E05F9CAB33CDCCD6AFCA33257BB85
:105D70007F5BBBCED1026F2BC9B5675157BB7E2667
:105D800094F782ED4027B2D398276FE5F7094F08C3
:105D90000AEB871CECE58214FFF57B013007FEF56A
:105DA000AD0B3FF7960748FC4A027E0150FC0B07FB
:105DB0003FF9AD07C9FCDB01B500C5FF8000A4FFBA
